{
  "_format": "hh-sol-artifact-1",
  "contractName": "Domains",
  "sourceName": "contracts/Domains.sol",
  "abi": [
    {
      "inputs": [
        {
          "internalType": "string",
          "name": "_tld",
          "type": "string"
        }
      ],
      "stateMutability": "payable",
      "type": "constructor"
    },
    {
      "anonymous": false,
      "inputs": [
        {
          "indexed": true,
          "internalType": "address",
          "name": "owner",
          "type": "address"
        },
        {
          "indexed": true,
          "internalType": "address",
          "name": "approved",
          "type": "address"
        },
        {
          "indexed": true,
          "internalType": "uint256",
          "name": "tokenId",
          "type": "uint256"
        }
      ],
      "name": "Approval",
      "type": "event"
    },
    {
      "anonymous": false,
      "inputs": [
        {
          "indexed": true,
          "internalType": "address",
          "name": "owner",
          "type": "address"
        },
        {
          "indexed": true,
          "internalType": "address",
          "name": "operator",
          "type": "address"
        },
        {
          "indexed": false,
          "internalType": "bool",
          "name": "approved",
          "type": "bool"
        }
      ],
      "name": "ApprovalForAll",
      "type": "event"
    },
    {
      "anonymous": false,
      "inputs": [
        {
          "indexed": true,
          "internalType": "address",
          "name": "from",
          "type": "address"
        },
        {
          "indexed": true,
          "internalType": "address",
          "name": "to",
          "type": "address"
        },
        {
          "indexed": true,
          "internalType": "uint256",
          "name": "tokenId",
          "type": "uint256"
        }
      ],
      "name": "Transfer",
      "type": "event"
    },
    {
      "inputs": [
        {
          "internalType": "address",
          "name": "to",
          "type": "address"
        },
        {
          "internalType": "uint256",
          "name": "tokenId",
          "type": "uint256"
        }
      ],
      "name": "approve",
      "outputs": [],
      "stateMutability": "nonpayable",
      "type": "function"
    },
    {
      "inputs": [
        {
          "internalType": "address",
          "name": "owner",
          "type": "address"
        }
      ],
      "name": "balanceOf",
      "outputs": [
        {
          "internalType": "uint256",
          "name": "",
          "type": "uint256"
        }
      ],
      "stateMutability": "view",
      "type": "function"
    },
    {
      "inputs": [
        {
          "internalType": "string",
          "name": "",
          "type": "string"
        }
      ],
      "name": "domains",
      "outputs": [
        {
          "internalType": "address",
          "name": "",
          "type": "address"
        }
      ],
      "stateMutability": "view",
      "type": "function"
    },
    {
      "inputs": [
        {
          "internalType": "string",
          "name": "name",
          "type": "string"
        }
      ],
      "name": "getAddress",
      "outputs": [
        {
          "internalType": "address",
          "name": "",
          "type": "address"
        }
      ],
      "stateMutability": "view",
      "type": "function"
    },
    {
      "inputs": [
        {
          "internalType": "uint256",
          "name": "tokenId",
          "type": "uint256"
        }
      ],
      "name": "getApproved",
      "outputs": [
        {
          "internalType": "address",
          "name": "",
          "type": "address"
        }
      ],
      "stateMutability": "view",
      "type": "function"
    },
    {
      "inputs": [
        {
          "internalType": "string",
          "name": "name",
          "type": "string"
        }
      ],
      "name": "getRecord",
      "outputs": [
        {
          "internalType": "string",
          "name": "",
          "type": "string"
        }
      ],
      "stateMutability": "view",
      "type": "function"
    },
    {
      "inputs": [
        {
          "internalType": "address",
          "name": "owner",
          "type": "address"
        },
        {
          "internalType": "address",
          "name": "operator",
          "type": "address"
        }
      ],
      "name": "isApprovedForAll",
      "outputs": [
        {
          "internalType": "bool",
          "name": "",
          "type": "bool"
        }
      ],
      "stateMutability": "view",
      "type": "function"
    },
    {
      "inputs": [],
      "name": "name",
      "outputs": [
        {
          "internalType": "string",
          "name": "",
          "type": "string"
        }
      ],
      "stateMutability": "view",
      "type": "function"
    },
    {
      "inputs": [
        {
          "internalType": "uint256",
          "name": "tokenId",
          "type": "uint256"
        }
      ],
      "name": "ownerOf",
      "outputs": [
        {
          "internalType": "address",
          "name": "",
          "type": "address"
        }
      ],
      "stateMutability": "view",
      "type": "function"
    },
    {
      "inputs": [
        {
          "internalType": "string",
          "name": "name",
          "type": "string"
        }
      ],
      "name": "price",
      "outputs": [
        {
          "internalType": "uint256",
          "name": "",
          "type": "uint256"
        }
      ],
      "stateMutability": "pure",
      "type": "function"
    },
    {
      "inputs": [
        {
          "internalType": "string",
          "name": "",
          "type": "string"
        }
      ],
      "name": "records",
      "outputs": [
        {
          "internalType": "string",
          "name": "",
          "type": "string"
        }
      ],
      "stateMutability": "view",
      "type": "function"
    },
    {
      "inputs": [
        {
          "internalType": "string",
          "name": "name",
          "type": "string"
        }
      ],
      "name": "register",
      "outputs": [],
      "stateMutability": "payable",
      "type": "function"
    },
    {
      "inputs": [
        {
          "internalType": "address",
          "name": "from",
          "type": "address"
        },
        {
          "internalType": "address",
          "name": "to",
          "type": "address"
        },
        {
          "internalType": "uint256",
          "name": "tokenId",
          "type": "uint256"
        }
      ],
      "name": "safeTransferFrom",
      "outputs": [],
      "stateMutability": "nonpayable",
      "type": "function"
    },
    {
      "inputs": [
        {
          "internalType": "address",
          "name": "from",
          "type": "address"
        },
        {
          "internalType": "address",
          "name": "to",
          "type": "address"
        },
        {
          "internalType": "uint256",
          "name": "tokenId",
          "type": "uint256"
        },
        {
          "internalType": "bytes",
          "name": "_data",
          "type": "bytes"
        }
      ],
      "name": "safeTransferFrom",
      "outputs": [],
      "stateMutability": "nonpayable",
      "type": "function"
    },
    {
      "inputs": [
        {
          "internalType": "address",
          "name": "operator",
          "type": "address"
        },
        {
          "internalType": "bool",
          "name": "approved",
          "type": "bool"
        }
      ],
      "name": "setApprovalForAll",
      "outputs": [],
      "stateMutability": "nonpayable",
      "type": "function"
    },
    {
      "inputs": [
        {
          "internalType": "string",
          "name": "name",
          "type": "string"
        },
        {
          "internalType": "string",
          "name": "record",
          "type": "string"
        }
      ],
      "name": "setRecord",
      "outputs": [],
      "stateMutability": "nonpayable",
      "type": "function"
    },
    {
      "inputs": [
        {
          "internalType": "bytes4",
          "name": "interfaceId",
          "type": "bytes4"
        }
      ],
      "name": "supportsInterface",
      "outputs": [
        {
          "internalType": "bool",
          "name": "",
          "type": "bool"
        }
      ],
      "stateMutability": "view",
      "type": "function"
    },
    {
      "inputs": [],
      "name": "symbol",
      "outputs": [
        {
          "internalType": "string",
          "name": "",
          "type": "string"
        }
      ],
      "stateMutability": "view",
      "type": "function"
    },
    {
      "inputs": [
        {
          "internalType": "string",
          "name": "str",
          "type": "string"
        }
      ],
      "name": "testStr",
      "outputs": [
        {
          "internalType": "bool",
          "name": "",
          "type": "bool"
        }
      ],
      "stateMutability": "pure",
      "type": "function"
    },
    {
      "inputs": [],
      "name": "tld",
      "outputs": [
        {
          "internalType": "string",
          "name": "",
          "type": "string"
        }
      ],
      "stateMutability": "view",
      "type": "function"
    },
    {
      "inputs": [
        {
          "internalType": "uint256",
          "name": "tokenId",
          "type": "uint256"
        }
      ],
      "name": "tokenURI",
      "outputs": [
        {
          "internalType": "string",
          "name": "",
          "type": "string"
        }
      ],
      "stateMutability": "view",
      "type": "function"
    },
    {
      "inputs": [
        {
          "internalType": "address",
          "name": "from",
          "type": "address"
        },
        {
          "internalType": "address",
          "name": "to",
          "type": "address"
        },
        {
          "internalType": "uint256",
          "name": "tokenId",
          "type": "uint256"
        }
      ],
      "name": "transferFrom",
      "outputs": [],
      "stateMutability": "nonpayable",
      "type": "function"
    }
  ],
  "bytecode": "0x6080604052604051806108a0016040528061086b815260200162004da861086b9139600990805190602001906200003892919062000283565b506040518060400160405280600d81526020017f3c2f746578743e3c2f7376673e00000000000000000000000000000000000000815250600a90805190602001906200008692919062000283565b5060405162005613380380620056138339818101604052810190620000ac9190620004d0565b6040518060400160405280601581526020017f536967726964204e616d696e67205365727669636500000000000000000000008152506040518060400160405280600381526020017f534e53000000000000000000000000000000000000000000000000000000000081525081600090805190602001906200013092919062000283565b5080600190805190602001906200014992919062000283565b50505080600890805190602001906200016492919062000283565b50620001b06040518060400160405280601f81526020017f68656c6c6f2c20646f6d61696e20636f6e747261637420697320686572652e00815250620001b760201b620017e11760201c565b5062000607565b6200025781604051602401620001ce91906200057e565b6040516020818303038152906040527f41304fac000000000000000000000000000000000000000000000000000000007bffffffffffffffffffffffffffffffffffffffffffffffffffffffff19166020820180517bffffffffffffffffffffffffffffffffffffffffffffffffffffffff83818316178352505050506200025a60201b60201c565b50565b60008151905060006a636f6e736f6c652e6c6f679050602083016000808483855afa5050505050565b8280546200029190620005d1565b90600052602060002090601f016020900481019282620002b5576000855562000301565b82601f10620002d057805160ff191683800117855562000301565b8280016001018555821562000301579182015b8281111562000300578251825591602001919060010190620002e3565b5b50905062000310919062000314565b5090565b5b808211156200032f57600081600090555060010162000315565b5090565b6000604051905090565b600080fd5b600080fd5b600080fd5b600080fd5b6000601f19601f8301169050919050565b7f4e487b7100000000000000000000000000000000000000000000000000000000600052604160045260246000fd5b6200039c8262000351565b810181811067ffffffffffffffff82111715620003be57620003bd62000362565b5b80604052505050565b6000620003d362000333565b9050620003e1828262000391565b919050565b600067ffffffffffffffff82111562000404576200040362000362565b5b6200040f8262000351565b9050602081019050919050565b60005b838110156200043c5780820151818401526020810190506200041f565b838111156200044c576000848401525b50505050565b6000620004696200046384620003e6565b620003c7565b9050828152602081018484840111156200048857620004876200034c565b5b620004958482856200041c565b509392505050565b600082601f830112620004b557620004b462000347565b5b8151620004c784826020860162000452565b91505092915050565b600060208284031215620004e957620004e86200033d565b5b600082015167ffffffffffffffff8111156200050a576200050962000342565b5b62000518848285016200049d565b91505092915050565b600081519050919050565b600082825260208201905092915050565b60006200054a8262000521565b6200055681856200052c565b9350620005688185602086016200041c565b620005738162000351565b840191505092915050565b600060208201905081810360008301526200059a81846200053d565b905092915050565b7f4e487b7100000000000000000000000000000000000000000000000000000000600052602260045260246000fd5b60006002820490506001821680620005ea57607f821691505b60208210811415620006015762000600620005a2565b5b50919050565b61479180620006176000396000f3fe6080604052600436106101355760003560e01c80636352211e116100ab578063bf40fac11161006f578063bf40fac114610470578063c1880a98146104ad578063c87b56dd146104d6578063e985e9c514610513578063f2c298be14610550578063fe2c61981461056c57610135565b80636352211e1461037957806370a08231146103b657806395d89b41146103f3578063a22cb4651461041e578063b88d4fde1461044757610135565b806323b872dd116100fd57806323b872dd14610245578063264492351461026e5780632d551432146102ab57806342842e0e146102d6578063541e771d146102ff5780635684cff51461033c57610135565b806301ffc9a71461013a57806306fdde0314610177578063081812fc146101a2578063095ea7b3146101df57806311dd884514610208575b600080fd5b34801561014657600080fd5b50610161600480360381019061015c9190612cc0565b6105a9565b60405161016e9190612d08565b60405180910390f35b34801561018357600080fd5b5061018c61068b565b6040516101999190612dbc565b60405180910390f35b3480156101ae57600080fd5b506101c960048036038101906101c49190612e14565b61071d565b6040516101d69190612e82565b60405180910390f35b3480156101eb57600080fd5b5061020660048036038101906102019190612ec9565b6107a2565b005b34801561021457600080fd5b5061022f600480360381019061022a9190612f6e565b6108ba565b60405161023c9190612dbc565b60405180910390f35b34801561025157600080fd5b5061026c60048036038101906102679190612fbb565b61096d565b005b34801561027a57600080fd5b506102956004803603810190610290919061313e565b6109cd565b6040516102a29190612e82565b60405180910390f35b3480156102b757600080fd5b506102c0610a16565b6040516102cd9190612dbc565b60405180910390f35b3480156102e257600080fd5b506102fd60048036038101906102f89190612fbb565b610aa4565b005b34801561030b57600080fd5b506103266004803603810190610321919061313e565b610ac4565b6040516103339190612dbc565b60405180910390f35b34801561034857600080fd5b50610363600480360381019061035e9190612f6e565b610b7a565b6040516103709190612d08565b60405180910390f35b34801561038557600080fd5b506103a0600480360381019061039b9190612e14565b610d91565b6040516103ad9190612e82565b60405180910390f35b3480156103c257600080fd5b506103dd60048036038101906103d89190613187565b610e43565b6040516103ea91906131c3565b60405180910390f35b3480156103ff57600080fd5b50610408610efb565b6040516104159190612dbc565b60405180910390f35b34801561042a57600080fd5b506104456004803603810190610440919061320a565b610f8d565b005b34801561045357600080fd5b5061046e600480360381019061046991906132eb565b610fa3565b005b34801561047c57600080fd5b5061049760048036038101906104929190612f6e565b611005565b6040516104a49190612e82565b60405180910390f35b3480156104b957600080fd5b506104d460048036038101906104cf919061336e565b611050565b005b3480156104e257600080fd5b506104fd60048036038101906104f89190612e14565b61114e565b60405161050a9190612dbc565b60405180910390f35b34801561051f57600080fd5b5061053a600480360381019061053591906133ef565b6112a0565b6040516105479190612d08565b60405180910390f35b61056a60048036038101906105659190612f6e565b611334565b005b34801561057857600080fd5b50610593600480360381019061058e9190612f6e565b61173b565b6040516105a091906131c3565b60405180910390f35b60007f80ac58cd000000000000000000000000000000000000000000000000000000007bffffffffffffffffffffffffffffffffffffffffffffffffffffffff1916827bffffffffffffffffffffffffffffffffffffffffffffffffffffffff1916148061067457507f5b5e139f000000000000000000000000000000000000000000000000000000007bffffffffffffffffffffffffffffffffffffffffffffffffffffffff1916827bffffffffffffffffffffffffffffffffffffffffffffffffffffffff1916145b8061068457506106838261187a565b5b9050919050565b60606000805461069a9061345e565b80601f01602080910402602001604051908101604052809291908181526020018280546106c69061345e565b80156107135780601f106106e857610100808354040283529160200191610713565b820191906000526020600020905b8154815290600101906020018083116106f657829003601f168201915b5050505050905090565b6000610728826118e4565b610767576040517f08c379a000000000000000000000000000000000000000000000000000000000815260040161075e90613502565b60405180910390fd5b6004600083815260200190815260200160002060009054906101000a900473ffffffffffffffffffffffffffffffffffffffff169050919050565b60006107ad82610d91565b90508073ffffffffffffffffffffffffffffffffffffffff168373ffffffffffffffffffffffffffffffffffffffff16141561081e576040517f08c379a000000000000000000000000000000000000000000000000000000000815260040161081590613594565b60405180910390fd5b8073ffffffffffffffffffffffffffffffffffffffff1661083d611950565b73ffffffffffffffffffffffffffffffffffffffff16148061086c575061086b81610866611950565b6112a0565b5b6108ab576040517f08c379a00000000000000000000000000000000000000000000000000000000081526004016108a290613626565b60405180910390fd5b6108b58383611958565b505050565b6060600c83836040516108ce929190613676565b908152602001604051809103902080546108e79061345e565b80601f01602080910402602001604051908101604052809291908181526020018280546109139061345e565b80156109605780601f1061093557610100808354040283529160200191610960565b820191906000526020600020905b81548152906001019060200180831161094357829003601f168201915b5050505050905092915050565b61097e610978611950565b82611a11565b6109bd576040517f08c379a00000000000000000000000000000000000000000000000000000000081526004016109b490613701565b60405180910390fd5b6109c8838383611aef565b505050565b600b818051602081018201805184825260208301602085012081835280955050505050506000915054906101000a900473ffffffffffffffffffffffffffffffffffffffff1681565b60088054610a239061345e565b80601f0160208091040260200160405190810160405280929190818152602001828054610a4f9061345e565b8015610a9c5780601f10610a7157610100808354040283529160200191610a9c565b820191906000526020600020905b815481529060010190602001808311610a7f57829003601f168201915b505050505081565b610abf83838360405180602001604052806000815250610fa3565b505050565b600c818051602081018201805184825260208301602085012081835280955050505050506000915090508054610af99061345e565b80601f0160208091040260200160405190810160405280929190818152602001828054610b259061345e565b8015610b725780601f10610b4757610100808354040283529160200191610b72565b820191906000526020600020905b815481529060010190602001808311610b5557829003601f168201915b505050505081565b60008083838080601f016020809104026020016040519081016040528093929190818152602001838380828437600081840152601f19601f820116905080830192505050505050509050600d81511115610bd8576000915050610d8b565b60005b8151811015610d84576000828281518110610bf957610bf8613721565b5b602001015160f81c60f81b9050603060f81b817effffffffffffffffffffffffffffffffffffffffffffffffffffffffffffff191610158015610c625750603960f81b817effffffffffffffffffffffffffffffffffffffffffffffffffffffffffffff191611155b158015610cc85750604160f81b817effffffffffffffffffffffffffffffffffffffffffffffffffffffffffffff191610158015610cc65750605a60f81b817effffffffffffffffffffffffffffffffffffffffffffffffffffffffffffff191611155b155b8015610d2d5750606160f81b817effffffffffffffffffffffffffffffffffffffffffffffffffffffffffffff191610158015610d2b5750607a60f81b817effffffffffffffffffffffffffffffffffffffffffffffffffffffffffffff191611155b155b8015610d5f5750602e60f81b817effffffffffffffffffffffffffffffffffffffffffffffffffffffffffffff191614155b15610d705760009350505050610d8b565b508080610d7c9061377f565b915050610bdb565b5060019150505b92915050565b6000806002600084815260200190815260200160002060009054906101000a900473ffffffffffffffffffffffffffffffffffffffff169050600073ffffffffffffffffffffffffffffffffffffffff168173ffffffffffffffffffffffffffffffffffffffff161415610e3a576040517f08c379a0000000000000000000000000000000000000000000000000000000008152600401610e319061383a565b60405180910390fd5b80915050919050565b60008073ffffffffffffffffffffffffffffffffffffffff168273ffffffffffffffffffffffffffffffffffffffff161415610eb4576040517f08c379a0000000000000000000000000000000000000000000000000000000008152600401610eab906138cc565b60405180910390fd5b600360008373ffffffffffffffffffffffffffffffffffffffff1673ffffffffffffffffffffffffffffffffffffffff168152602001908152602001600020549050919050565b606060018054610f0a9061345e565b80601f0160208091040260200160405190810160405280929190818152602001828054610f369061345e565b8015610f835780601f10610f5857610100808354040283529160200191610f83565b820191906000526020600020905b815481529060010190602001808311610f6657829003601f168201915b5050505050905090565b610f9f610f98611950565b8383611d56565b5050565b610fb4610fae611950565b83611a11565b610ff3576040517f08c379a0000000000000000000000000000000000000000000000000000000008152600401610fea90613701565b60405180910390fd5b610fff84848484611ec3565b50505050565b6000600b8383604051611019929190613676565b908152602001604051809103902060009054906101000a900473ffffffffffffffffffffffffffffffffffffffff16905092915050565b6001151561105e8383610b7a565b1515146110a0576040517f08c379a000000000000000000000000000000000000000000000000000000000815260040161109790613938565b60405180910390fd5b3373ffffffffffffffffffffffffffffffffffffffff16600b85856040516110c9929190613676565b908152602001604051809103902060009054906101000a900473ffffffffffffffffffffffffffffffffffffffff1673ffffffffffffffffffffffffffffffffffffffff161461111857600080fd5b8181600c868660405161112c929190613676565b90815260200160405180910390209190611147929190612b2b565b5050505050565b6060611159826118e4565b611198576040517f08c379a000000000000000000000000000000000000000000000000000000000815260040161118f906139ca565b60405180910390fd5b60006006600084815260200190815260200160002080546111b89061345e565b80601f01602080910402602001604051908101604052809291908181526020018280546111e49061345e565b80156112315780601f1061120657610100808354040283529160200191611231565b820191906000526020600020905b81548152906001019060200180831161121457829003601f168201915b505050505090506000611242611f1f565b905060008151141561125857819250505061129b565b60008251111561128d578082604051602001611275929190613a1b565b6040516020818303038152906040529250505061129b565b61129684611f36565b925050505b919050565b6000600560008473ffffffffffffffffffffffffffffffffffffffff1673ffffffffffffffffffffffffffffffffffffffff16815260200190815260200160002060008373ffffffffffffffffffffffffffffffffffffffff1673ffffffffffffffffffffffffffffffffffffffff16815260200190815260200160002060009054906101000a900460ff16905092915050565b600073ffffffffffffffffffffffffffffffffffffffff16600b838360405161135e929190613676565b908152602001604051809103902060009054906101000a900473ffffffffffffffffffffffffffffffffffffffff1673ffffffffffffffffffffffffffffffffffffffff16146113ad57600080fd5b60003073ffffffffffffffffffffffffffffffffffffffff1663fe2c619884846040518363ffffffff1660e01b81526004016113ea929190613a6c565b602060405180830381865afa158015611407573d6000803e3d6000fd5b505050506040513d601f19601f8201168201806040525081019061142b9190613aa5565b905080341015611470576040517f08c379a000000000000000000000000000000000000000000000000000000000815260040161146790613b1e565b60405180910390fd5b60008383600860405160200161148893929190613c1e565b60405160208183030381529060405290506000600982600a6040516020016114b293929190613c4f565b604051602081830303815290604052905060006114cf6007611fdd565b9050600061152087878080601f016020809104026020016040519081016040528093929190818152602001838380828437600081840152601f19601f82011690508083019250505050505050611feb565b9050600061152d826121a0565b90506115966040518060600160405280602e815260200161472e602e913989898080601f016020809104026020016040519081016040528093929190818152602001838380828437600081840152601f19601f8201169050808301925050505050505085612301565b60006115cc866115a5876123a0565b846040516020016115b893929190613dfc565b6040516020818303038152906040526123a0565b90506000816040516020016115e19190613ea5565b604051602081830303815290604052905061161360405180606001604052806039815260200161467c603991396117e1565b6116526040518060400160405280600e81526020017f46696e616c20746f6b656e55524900000000000000000000000000000000000081525082612538565b6116736040518060600160405280603981526020016146b5603991396117e1565b61167d33866125d4565b61168785826125f2565b33600b8b8b60405161169a929190613676565b908152602001604051809103902060006101000a81548173ffffffffffffffffffffffffffffffffffffffff021916908373ffffffffffffffffffffffffffffffffffffffff1602179055506117256040518060400160405280601b81526020017f2573206861732072656769737465726564206120646f6d61696e21000000000081525033612666565b61172f6007612702565b50505050505050505050565b60008061178b84848080601f016020809104026020016040519081016040528093929190818152602001838380828437600081840152601f19601f82011690508083019250505050505050611feb565b90506000811161179a57600080fd5b60038114156117b4576706f05b59d3b200009150506117db565b60048114156117ce57670429d069189e00009150506117db565b67016345785d8a00009150505b92915050565b611877816040516024016117f59190612dbc565b6040516020818303038152906040527f41304fac000000000000000000000000000000000000000000000000000000007bffffffffffffffffffffffffffffffffffffffffffffffffffffffff19166020820180517bffffffffffffffffffffffffffffffffffffffffffffffffffffffff8381831617835250505050612718565b50565b60007f01ffc9a7000000000000000000000000000000000000000000000000000000007bffffffffffffffffffffffffffffffffffffffffffffffffffffffff1916827bffffffffffffffffffffffffffffffffffffffffffffffffffffffff1916149050919050565b60008073ffffffffffffffffffffffffffffffffffffffff166002600084815260200190815260200160002060009054906101000a900473ffffffffffffffffffffffffffffffffffffffff1673ffffffffffffffffffffffffffffffffffffffff1614159050919050565b600033905090565b816004600083815260200190815260200160002060006101000a81548173ffffffffffffffffffffffffffffffffffffffff021916908373ffffffffffffffffffffffffffffffffffffffff160217905550808273ffffffffffffffffffffffffffffffffffffffff166119cb83610d91565b73ffffffffffffffffffffffffffffffffffffffff167f8c5be1e5ebec7d5bd14f71427d1e84f3dd0314c0f7b2291e5b200ac8c7c3b92560405160405180910390a45050565b6000611a1c826118e4565b611a5b576040517f08c379a0000000000000000000000000000000000000000000000000000000008152600401611a5290613f39565b60405180910390fd5b6000611a6683610d91565b90508073ffffffffffffffffffffffffffffffffffffffff168473ffffffffffffffffffffffffffffffffffffffff161480611ad557508373ffffffffffffffffffffffffffffffffffffffff16611abd8461071d565b73ffffffffffffffffffffffffffffffffffffffff16145b80611ae65750611ae581856112a0565b5b91505092915050565b8273ffffffffffffffffffffffffffffffffffffffff16611b0f82610d91565b73ffffffffffffffffffffffffffffffffffffffff1614611b65576040517f08c379a0000000000000000000000000000000000000000000000000000000008152600401611b5c90613fcb565b60405180910390fd5b600073ffffffffffffffffffffffffffffffffffffffff168273ffffffffffffffffffffffffffffffffffffffff161415611bd5576040517f08c379a0000000000000000000000000000000000000000000000000000000008152600401611bcc9061405d565b60405180910390fd5b611be0838383612741565b611beb600082611958565b6001600360008573ffffffffffffffffffffffffffffffffffffffff1673ffffffffffffffffffffffffffffffffffffffff1681526020019081526020016000206000828254611c3b919061407d565b925050819055506001600360008473ffffffffffffffffffffffffffffffffffffffff1673ffffffffffffffffffffffffffffffffffffffff1681526020019081526020016000206000828254611c9291906140b1565b92505081905550816002600083815260200190815260200160002060006101000a81548173ffffffffffffffffffffffffffffffffffffffff021916908373ffffffffffffffffffffffffffffffffffffffff160217905550808273ffffffffffffffffffffffffffffffffffffffff168473ffffffffffffffffffffffffffffffffffffffff167fddf252ad1be2c89b69c2b068fc378daa952ba7f163c4a11628f55a4df523b3ef60405160405180910390a4611d51838383612746565b505050565b8173ffffffffffffffffffffffffffffffffffffffff168373ffffffffffffffffffffffffffffffffffffffff161415611dc5576040517f08c379a0000000000000000000000000000000000000000000000000000000008152600401611dbc90614153565b60405180910390fd5b80600560008573ffffffffffffffffffffffffffffffffffffffff1673ffffffffffffffffffffffffffffffffffffffff16815260200190815260200160002060008473ffffffffffffffffffffffffffffffffffffffff1673ffffffffffffffffffffffffffffffffffffffff16815260200190815260200160002060006101000a81548160ff0219169083151502179055508173ffffffffffffffffffffffffffffffffffffffff168373ffffffffffffffffffffffffffffffffffffffff167f17307eab39ab6107e8899845ad3d59bd9653f200f220920489ca2b5937696c3183604051611eb69190612d08565b60405180910390a3505050565b611ece848484611aef565b611eda8484848461274b565b611f19576040517f08c379a0000000000000000000000000000000000000000000000000000000008152600401611f10906141e5565b60405180910390fd5b50505050565b606060405180602001604052806000815250905090565b6060611f41826118e4565b611f80576040517f08c379a0000000000000000000000000000000000000000000000000000000008152600401611f7790614277565b60405180910390fd5b6000611f8a611f1f565b90506000815111611faa5760405180602001604052806000815250611fd5565b80611fb4846121a0565b604051602001611fc5929190613a1b565b6040516020818303038152906040525b915050919050565b600081600001549050919050565b60008060008084519050600092505b8082101561219557600085838151811061201757612016613721565b5b602001015160f81c60f81b9050608060f81b817effffffffffffffffffffffffffffffffffffffffffffffffffffffffffffff191610156120665760018361205f91906140b1565b9250612181565b60e060f81b817effffffffffffffffffffffffffffffffffffffffffffffffffffffffffffff191610156120a8576002836120a191906140b1565b9250612180565b60f060f81b817effffffffffffffffffffffffffffffffffffffffffffffffffffffffffffff191610156120ea576003836120e391906140b1565b925061217f565b60f8801b817effffffffffffffffffffffffffffffffffffffffffffffffffffffffffffff1916101561212b5760048361212491906140b1565b925061217e565b60fc60f81b817effffffffffffffffffffffffffffffffffffffffffffffffffffffffffffff1916101561216d5760058361216691906140b1565b925061217d565b60068361217a91906140b1565b92505b5b5b5b5b50828061218d9061377f565b935050611ffa565b829350505050919050565b606060008214156121e8576040518060400160405280600181526020017f300000000000000000000000000000000000000000000000000000000000000081525090506122fc565b600082905060005b6000821461221a5780806122039061377f565b915050600a8261221391906142c6565b91506121f0565b60008167ffffffffffffffff81111561223657612235613013565b5b6040519080825280601f01601f1916602001820160405280156122685781602001600182028036833780820191505090505b5090505b600085146122f557600182612281919061407d565b9150600a8561229091906142f7565b603061229c91906140b1565b60f81b8183815181106122b2576122b1613721565b5b60200101907effffffffffffffffffffffffffffffffffffffffffffffffffffffffffffff1916908160001a905350600a856122ee91906142c6565b945061226c565b8093505050505b919050565b61239b83838360405160240161231993929190614328565b6040516020818303038152906040527ff362ca59000000000000000000000000000000000000000000000000000000007bffffffffffffffffffffffffffffffffffffffffffffffffffffffff19166020820180517bffffffffffffffffffffffffffffffffffffffffffffffffffffffff8381831617835250505050612718565b505050565b606060008251905060008114156123c95760405180602001604052806000815250915050612533565b600060036002836123da91906140b1565b6123e491906142c6565b60046123f0919061436d565b9050600060208261240191906140b1565b67ffffffffffffffff81111561241a57612419613013565b5b6040519080825280601f01601f19166020018201604052801561244c5781602001600182028036833780820191505090505b50905060006040518060600160405280604081526020016146ee604091399050600181016020830160005b868110156124f05760038101905062ffffff818a015116603f8160121c168401518060081b905060ff603f83600c1c1686015116810190508060081b905060ff603f8360061c1686015116810190508060081b905060ff603f831686015116810190508060e01b90508084526004840193505050612477565b50600386066001811461250a576002811461251a57612525565b613d3d60f01b6002830352612525565b603d60f81b60018303525b508484525050819450505050505b919050565b6125d0828260405160240161254e9291906143c7565b6040516020818303038152906040527f4b5c4277000000000000000000000000000000000000000000000000000000007bffffffffffffffffffffffffffffffffffffffffffffffffffffffff19166020820180517bffffffffffffffffffffffffffffffffffffffffffffffffffffffff8381831617835250505050612718565b5050565b6125ee8282604051806020016040528060008152506128d3565b5050565b6125fb826118e4565b61263a576040517f08c379a000000000000000000000000000000000000000000000000000000000815260040161263190614470565b60405180910390fd5b80600660008481526020019081526020016000209080519060200190612661929190612bb1565b505050565b6126fe828260405160240161267c929190614490565b6040516020818303038152906040527f319af333000000000000000000000000000000000000000000000000000000007bffffffffffffffffffffffffffffffffffffffffffffffffffffffff19166020820180517bffffffffffffffffffffffffffffffffffffffffffffffffffffffff8381831617835250505050612718565b5050565b6001816000016000828254019250508190555050565b60008151905060006a636f6e736f6c652e6c6f679050602083016000808483855afa5050505050565b505050565b505050565b600061276c8473ffffffffffffffffffffffffffffffffffffffff1661292e565b156128c6578373ffffffffffffffffffffffffffffffffffffffff1663150b7a02612795611950565b8786866040518563ffffffff1660e01b81526004016127b79493929190614515565b6020604051808303816000875af19250505080156127f357506040513d601f19601f820116820180604052508101906127f09190614576565b60015b612876573d8060008114612823576040519150601f19603f3d011682016040523d82523d6000602084013e612828565b606091505b5060008151141561286e576040517f08c379a0000000000000000000000000000000000000000000000000000000008152600401612865906141e5565b60405180910390fd5b805181602001fd5b63150b7a0260e01b7bffffffffffffffffffffffffffffffffffffffffffffffffffffffff1916817bffffffffffffffffffffffffffffffffffffffffffffffffffffffff1916149150506128cb565b600190505b949350505050565b6128dd8383612951565b6128ea600084848461274b565b612929576040517f08c379a0000000000000000000000000000000000000000000000000000000008152600401612920906141e5565b60405180910390fd5b505050565b6000808273ffffffffffffffffffffffffffffffffffffffff163b119050919050565b600073ffffffffffffffffffffffffffffffffffffffff168273ffffffffffffffffffffffffffffffffffffffff1614156129c1576040517f08c379a00000000000000000000000000000000000000000000000000000000081526004016129b8906145ef565b60405180910390fd5b6129ca816118e4565b15612a0a576040517f08c379a0000000000000000000000000000000000000000000000000000000008152600401612a019061465b565b60405180910390fd5b612a1660008383612741565b6001600360008473ffffffffffffffffffffffffffffffffffffffff1673ffffffffffffffffffffffffffffffffffffffff1681526020019081526020016000206000828254612a6691906140b1565b92505081905550816002600083815260200190815260200160002060006101000a81548173ffffffffffffffffffffffffffffffffffffffff021916908373ffffffffffffffffffffffffffffffffffffffff160217905550808273ffffffffffffffffffffffffffffffffffffffff16600073ffffffffffffffffffffffffffffffffffffffff167fddf252ad1be2c89b69c2b068fc378daa952ba7f163c4a11628f55a4df523b3ef60405160405180910390a4612b2760008383612746565b5050565b828054612b379061345e565b90600052602060002090601f016020900481019282612b595760008555612ba0565b82601f10612b7257803560ff1916838001178555612ba0565b82800160010185558215612ba0579182015b82811115612b9f578235825591602001919060010190612b84565b5b509050612bad9190612c37565b5090565b828054612bbd9061345e565b90600052602060002090601f016020900481019282612bdf5760008555612c26565b82601f10612bf857805160ff1916838001178555612c26565b82800160010185558215612c26579182015b82811115612c25578251825591602001919060010190612c0a565b5b509050612c339190612c37565b5090565b5b80821115612c50576000816000905550600101612c38565b5090565b6000604051905090565b600080fd5b600080fd5b60007fffffffff0000000000000000000000000000000000000000000000000000000082169050919050565b612c9d81612c68565b8114612ca857600080fd5b50565b600081359050612cba81612c94565b92915050565b600060208284031215612cd657612cd5612c5e565b5b6000612ce484828501612cab565b91505092915050565b60008115159050919050565b612d0281612ced565b82525050565b6000602082019050612d1d6000830184612cf9565b92915050565b600081519050919050565b600082825260208201905092915050565b60005b83811015612d5d578082015181840152602081019050612d42565b83811115612d6c576000848401525b50505050565b6000601f19601f8301169050919050565b6000612d8e82612d23565b612d988185612d2e565b9350612da8818560208601612d3f565b612db181612d72565b840191505092915050565b60006020820190508181036000830152612dd68184612d83565b905092915050565b6000819050919050565b612df181612dde565b8114612dfc57600080fd5b50565b600081359050612e0e81612de8565b92915050565b600060208284031215612e2a57612e29612c5e565b5b6000612e3884828501612dff565b91505092915050565b600073ffffffffffffffffffffffffffffffffffffffff82169050919050565b6000612e6c82612e41565b9050919050565b612e7c81612e61565b82525050565b6000602082019050612e976000830184612e73565b92915050565b612ea681612e61565b8114612eb157600080fd5b50565b600081359050612ec381612e9d565b92915050565b60008060408385031215612ee057612edf612c5e565b5b6000612eee85828601612eb4565b9250506020612eff85828601612dff565b9150509250929050565b600080fd5b600080fd5b600080fd5b60008083601f840112612f2e57612f2d612f09565b5b8235905067ffffffffffffffff811115612f4b57612f4a612f0e565b5b602083019150836001820283011115612f6757612f66612f13565b5b9250929050565b60008060208385031215612f8557612f84612c5e565b5b600083013567ffffffffffffffff811115612fa357612fa2612c63565b5b612faf85828601612f18565b92509250509250929050565b600080600060608486031215612fd457612fd3612c5e565b5b6000612fe286828701612eb4565b9350506020612ff386828701612eb4565b925050604061300486828701612dff565b9150509250925092565b600080fd5b7f4e487b7100000000000000000000000000000000000000000000000000000000600052604160045260246000fd5b61304b82612d72565b810181811067ffffffffffffffff8211171561306a57613069613013565b5b80604052505050565b600061307d612c54565b90506130898282613042565b919050565b600067ffffffffffffffff8211156130a9576130a8613013565b5b6130b282612d72565b9050602081019050919050565b82818337600083830152505050565b60006130e16130dc8461308e565b613073565b9050828152602081018484840111156130fd576130fc61300e565b5b6131088482856130bf565b509392505050565b600082601f83011261312557613124612f09565b5b81356131358482602086016130ce565b91505092915050565b60006020828403121561315457613153612c5e565b5b600082013567ffffffffffffffff81111561317257613171612c63565b5b61317e84828501613110565b91505092915050565b60006020828403121561319d5761319c612c5e565b5b60006131ab84828501612eb4565b91505092915050565b6131bd81612dde565b82525050565b60006020820190506131d860008301846131b4565b92915050565b6131e781612ced565b81146131f257600080fd5b50565b600081359050613204816131de565b92915050565b6000806040838503121561322157613220612c5e565b5b600061322f85828601612eb4565b9250506020613240858286016131f5565b9150509250929050565b600067ffffffffffffffff82111561326557613264613013565b5b61326e82612d72565b9050602081019050919050565b600061328e6132898461324a565b613073565b9050828152602081018484840111156132aa576132a961300e565b5b6132b58482856130bf565b509392505050565b600082601f8301126132d2576132d1612f09565b5b81356132e284826020860161327b565b91505092915050565b6000806000806080858703121561330557613304612c5e565b5b600061331387828801612eb4565b945050602061332487828801612eb4565b935050604061333587828801612dff565b925050606085013567ffffffffffffffff81111561335657613355612c63565b5b613362878288016132bd565b91505092959194509250565b6000806000806040858703121561338857613387612c5e565b5b600085013567ffffffffffffffff8111156133a6576133a5612c63565b5b6133b287828801612f18565b9450945050602085013567ffffffffffffffff8111156133d5576133d4612c63565b5b6133e187828801612f18565b925092505092959194509250565b6000806040838503121561340657613405612c5e565b5b600061341485828601612eb4565b925050602061342585828601612eb4565b9150509250929050565b7f4e487b7100000000000000000000000000000000000000000000000000000000600052602260045260246000fd5b6000600282049050600182168061347657607f821691505b6020821081141561348a5761348961342f565b5b50919050565b7f4552433732313a20617070726f76656420717565727920666f72206e6f6e657860008201527f697374656e7420746f6b656e0000000000000000000000000000000000000000602082015250565b60006134ec602c83612d2e565b91506134f782613490565b604082019050919050565b6000602082019050818103600083015261351b816134df565b9050919050565b7f4552433732313a20617070726f76616c20746f2063757272656e74206f776e6560008201527f7200000000000000000000000000000000000000000000000000000000000000602082015250565b600061357e602183612d2e565b915061358982613522565b604082019050919050565b600060208201905081810360008301526135ad81613571565b9050919050565b7f4552433732313a20617070726f76652063616c6c6572206973206e6f74206f7760008201527f6e6572206e6f7220617070726f76656420666f7220616c6c0000000000000000602082015250565b6000613610603883612d2e565b915061361b826135b4565b604082019050919050565b6000602082019050818103600083015261363f81613603565b9050919050565b600081905092915050565b600061365d8385613646565b935061366a8385846130bf565b82840190509392505050565b6000613683828486613651565b91508190509392505050565b7f4552433732313a207472616e736665722063616c6c6572206973206e6f74206f60008201527f776e6572206e6f7220617070726f766564000000000000000000000000000000602082015250565b60006136eb603183612d2e565b91506136f68261368f565b604082019050919050565b6000602082019050818103600083015261371a816136de565b9050919050565b7f4e487b7100000000000000000000000000000000000000000000000000000000600052603260045260246000fd5b7f4e487b7100000000000000000000000000000000000000000000000000000000600052601160045260246000fd5b600061378a82612dde565b91507fffffffffffffffffffffffffffffffffffffffffffffffffffffffffffffffff8214156137bd576137bc613750565b5b600182019050919050565b7f4552433732313a206f776e657220717565727920666f72206e6f6e657869737460008201527f656e7420746f6b656e0000000000000000000000000000000000000000000000602082015250565b6000613824602983612d2e565b915061382f826137c8565b604082019050919050565b6000602082019050818103600083015261385381613817565b9050919050565b7f4552433732313a2062616c616e636520717565727920666f7220746865207a6560008201527f726f206164647265737300000000000000000000000000000000000000000000602082015250565b60006138b6602a83612d2e565b91506138c18261385a565b604082019050919050565b600060208201905081810360008301526138e5816138a9565b9050919050565b7f73686f756c6420626520616c7068616e756d6572696300000000000000000000600082015250565b6000613922601683612d2e565b915061392d826138ec565b602082019050919050565b6000602082019050818103600083015261395181613915565b9050919050565b7f45524337323155524953746f726167653a2055524920717565727920666f722060008201527f6e6f6e6578697374656e7420746f6b656e000000000000000000000000000000602082015250565b60006139b4603183612d2e565b91506139bf82613958565b604082019050919050565b600060208201905081810360008301526139e3816139a7565b9050919050565b60006139f582612d23565b6139ff8185613646565b9350613a0f818560208601612d3f565b80840191505092915050565b6000613a2782856139ea565b9150613a3382846139ea565b91508190509392505050565b6000613a4b8385612d2e565b9350613a588385846130bf565b613a6183612d72565b840190509392505050565b60006020820190508181036000830152613a87818486613a3f565b90509392505050565b600081519050613a9f81612de8565b92915050565b600060208284031215613abb57613aba612c5e565b5b6000613ac984828501613a90565b91505092915050565b7f4e6f7420656e6f756768204d6174696320706169640000000000000000000000600082015250565b6000613b08601583612d2e565b9150613b1382613ad2565b602082019050919050565b60006020820190508181036000830152613b3781613afb565b9050919050565b7f2e00000000000000000000000000000000000000000000000000000000000000600082015250565b6000613b74600183613646565b9150613b7f82613b3e565b600182019050919050565b60008190508160005260206000209050919050565b60008154613bac8161345e565b613bb68186613646565b94506001821660008114613bd15760018114613be257613c15565b60ff19831686528186019350613c15565b613beb85613b8a565b60005b83811015613c0d57815481890152600182019150602081019050613bee565b838801955050505b50505092915050565b6000613c2b828587613651565b9150613c3682613b67565b9150613c428284613b9f565b9150819050949350505050565b6000613c5b8286613b9f565b9150613c6782856139ea565b9150613c738284613b9f565b9150819050949350505050565b7f7b226e616d65223a202200000000000000000000000000000000000000000000600082015250565b6000613cb6600a83613646565b9150613cc182613c80565b600a82019050919050565b7f222c20226465736372697074696f6e223a20224120646f6d61696e206f6e207460008201527f6865204e696e6a61206e616d652073657276696365222c2022696d616765223a60208201527f2022646174613a696d6167652f7376672b786d6c3b6261736536342c00000000604082015250565b6000613d4e605c83613646565b9150613d5982613ccc565b605c82019050919050565b7f222c226c656e677468223a220000000000000000000000000000000000000000600082015250565b6000613d9a600c83613646565b9150613da582613d64565b600c82019050919050565b7f227d000000000000000000000000000000000000000000000000000000000000600082015250565b6000613de6600283613646565b9150613df182613db0565b600282019050919050565b6000613e0782613ca9565b9150613e1382866139ea565b9150613e1e82613d41565b9150613e2a82856139ea565b9150613e3582613d8d565b9150613e4182846139ea565b9150613e4c82613dd9565b9150819050949350505050565b7f646174613a6170706c69636174696f6e2f6a736f6e3b6261736536342c000000600082015250565b6000613e8f601d83613646565b9150613e9a82613e59565b601d82019050919050565b6000613eb082613e82565b9150613ebc82846139ea565b915081905092915050565b7f4552433732313a206f70657261746f7220717565727920666f72206e6f6e657860008201527f697374656e7420746f6b656e0000000000000000000000000000000000000000602082015250565b6000613f23602c83612d2e565b9150613f2e82613ec7565b604082019050919050565b60006020820190508181036000830152613f5281613f16565b9050919050565b7f4552433732313a207472616e736665722066726f6d20696e636f72726563742060008201527f6f776e6572000000000000000000000000000000000000000000000000000000602082015250565b6000613fb5602583612d2e565b9150613fc082613f59565b604082019050919050565b60006020820190508181036000830152613fe481613fa8565b9050919050565b7f4552433732313a207472616e7366657220746f20746865207a65726f2061646460008201527f7265737300000000000000000000000000000000000000000000000000000000602082015250565b6000614047602483612d2e565b915061405282613feb565b604082019050919050565b600060208201905081810360008301526140768161403a565b9050919050565b600061408882612dde565b915061409383612dde565b9250828210156140a6576140a5613750565b5b828203905092915050565b60006140bc82612dde565b91506140c783612dde565b9250827fffffffffffffffffffffffffffffffffffffffffffffffffffffffffffffffff038211156140fc576140fb613750565b5b828201905092915050565b7f4552433732313a20617070726f766520746f2063616c6c657200000000000000600082015250565b600061413d601983612d2e565b915061414882614107565b602082019050919050565b6000602082019050818103600083015261416c81614130565b9050919050565b7f4552433732313a207472616e7366657220746f206e6f6e20455243373231526560008201527f63656976657220696d706c656d656e7465720000000000000000000000000000602082015250565b60006141cf603283612d2e565b91506141da82614173565b604082019050919050565b600060208201905081810360008301526141fe816141c2565b9050919050565b7f4552433732314d657461646174613a2055524920717565727920666f72206e6f60008201527f6e6578697374656e7420746f6b656e0000000000000000000000000000000000602082015250565b6000614261602f83612d2e565b915061426c82614205565b604082019050919050565b6000602082019050818103600083015261429081614254565b9050919050565b7f4e487b7100000000000000000000000000000000000000000000000000000000600052601260045260246000fd5b60006142d182612dde565b91506142dc83612dde565b9250826142ec576142eb614297565b5b828204905092915050565b600061430282612dde565b915061430d83612dde565b92508261431d5761431c614297565b5b828206905092915050565b600060608201905081810360008301526143428186612d83565b905081810360208301526143568185612d83565b905061436560408301846131b4565b949350505050565b600061437882612dde565b915061438383612dde565b9250817fffffffffffffffffffffffffffffffffffffffffffffffffffffffffffffffff04831182151516156143bc576143bb613750565b5b828202905092915050565b600060408201905081810360008301526143e18185612d83565b905081810360208301526143f58184612d83565b90509392505050565b7f45524337323155524953746f726167653a2055524920736574206f66206e6f6e60008201527f6578697374656e7420746f6b656e000000000000000000000000000000000000602082015250565b600061445a602e83612d2e565b9150614465826143fe565b604082019050919050565b600060208201905081810360008301526144898161444d565b9050919050565b600060408201905081810360008301526144aa8185612d83565b90506144b96020830184612e73565b9392505050565b600081519050919050565b600082825260208201905092915050565b60006144e7826144c0565b6144f181856144cb565b9350614501818560208601612d3f565b61450a81612d72565b840191505092915050565b600060808201905061452a6000830187612e73565b6145376020830186612e73565b61454460408301856131b4565b818103606083015261455681846144dc565b905095945050505050565b60008151905061457081612c94565b92915050565b60006020828403121561458c5761458b612c5e565b5b600061459a84828501614561565b91505092915050565b7f4552433732313a206d696e7420746f20746865207a65726f2061646472657373600082015250565b60006145d9602083612d2e565b91506145e4826145a3565b602082019050919050565b60006020820190508181036000830152614608816145cc565b9050919050565b7f4552433732313a20746f6b656e20616c7265616479206d696e74656400000000600082015250565b6000614645601c83612d2e565b91506146508261460f565b602082019050919050565b6000602082019050818103600083015261467481614638565b905091905056fe0a2d2d2d2d2d2d2d2d2d2d2d2d2d2d2d2d2d2d2d2d2d2d2d2d2d2d2d2d2d2d2d2d2d2d2d2d2d2d2d2d2d2d2d2d2d2d2d2d2d2d2d2d2d2d2d2d2d2d2d2d2d2d2d2d2d2d2d2d2d2d2d2d2d2d2d2d2d2d2d2d2d2d2d2d2d2d2d2d2d2d2d2d2d2d2d2d2d2d2d2d2d2d2d2d2d2d2d2d2d2d2d2d0a4142434445464748494a4b4c4d4e4f505152535455565758595a6162636465666768696a6b6c6d6e6f707172737475767778797a303132333435363738392b2f5265676973746572696e67202573206f6e2074686520636f6e7472616374207769746820746f6b656e4944202564a2646970667358221220afea2445465adbc96dc224d0bcf50845b29f6ab7dcc4d941a2f3c0699248e82e64736f6c634300080a00333c73766720786d6c6e733d22687474703a2f2f7777772e77332e6f72672f323030302f737667222077696474683d2232373022206865696768743d22323730222066696c6c3d226e6f6e65223e3c706174682066696c6c3d2275726c282342292220643d224d302030683237307632373048307a222f3e3c646566733e3c66696c7465722069643d22412220636f6c6f722d696e746572706f6c6174696f6e2d66696c746572733d2273524742222066696c746572556e6974733d227573657253706163654f6e55736522206865696768743d22323730222077696474683d22323730223e3c666544726f70536861646f772064783d2230222064793d22312220737464446576696174696f6e3d22322220666c6f6f642d6f7061636974793d222e323235222077696474683d223230302522206865696768743d2232303025222f3e3c2f66696c7465723e3c2f646566733e3c7061746820643d224d37322e3836332034322e393439632d2e3636382d2e3338372d312e3432362d2e35392d322e3139372d2e3539732d312e3532392e3230342d322e3139372e35396c2d31302e30383120362e3033322d362e383520332e3933342d31302e30383120362e303332632d2e3636382e3338372d312e3432362e35392d322e3139372e3539732d312e3532392d2e3230342d322e3139372d2e35396c2d382e3031332d342e37323161342e353220342e35322030203020312d312e3538392d312e363136632d2e3338342d2e3636352d2e3539342d312e3431382d2e3630382d322e313837762d392e3331632d2e3031332d2e3737352e3138352d312e3533382e3537322d322e32303861342e323520342e323520302030203120312e3632352d312e3539356c372e3838342d342e3539632e3636382d2e33383720312e3432362d2e353920322e3139372d2e353973312e3532392e32303420322e3139372e35396c372e38383420342e353961342e353220342e353220302030203120312e35383920312e363136632e3338342e3636352e35393420312e3431382e36303820322e31383776362e3033326c362e38352d342e303635762d362e303332632e3031332d2e3737352d2e3138352d312e3533382d2e3537322d322e32303861342e323520342e32352030203020302d312e3632352d312e3539354c34312e3435362032342e3539632d2e3636382d2e3338372d312e3432362d2e35392d322e3139372d2e3539732d312e3532392e3230342d322e3139372e35396c2d31342e38363420382e36353561342e323520342e32352030203020302d312e36323520312e353935632d2e3338372e36372d2e35383520312e3433342d2e35373220322e3230387631372e343431632d2e3031332e3737352e31383520312e3533382e35373220322e32303861342e323520342e323520302030203020312e36323520312e3539356c31342e38363420382e363535632e3636382e33383720312e3432362e353920322e3139372e353973312e3532392d2e32303420322e3139372d2e35396c31302e3038312d352e39303120362e38352d342e3036352031302e3038312d352e393031632e3636382d2e33383720312e3432362d2e353920322e3139372d2e353973312e3532392e32303420322e3139372e35396c372e38383420342e353961342e353220342e353220302030203120312e35383920312e363136632e3338342e3636352e35393420312e3431382e36303820322e31383776392e333131632e3031332e3737352d2e31383520312e3533382d2e35373220322e32303861342e323520342e32352030203020312d312e36323520312e3539356c2d372e38383420342e373231632d2e3636382e3338372d312e3432362e35392d322e3139372e3539732d312e3532392d2e3230342d322e3139372d2e35396c2d372e3838342d342e353961342e353220342e35322030203020312d312e3538392d312e363136632d2e3338352d2e3636352d2e3539342d312e3431382d2e3630382d322e313837762d362e3033326c2d362e383520342e30363576362e303332632d2e3031332e3737352e31383520312e3533382e35373220322e32303861342e323520342e323520302030203020312e36323520312e3539356c31342e38363420382e363535632e3636382e33383720312e3432362e353920322e3139372e353973312e3532392d2e32303420322e3139372d2e35396c31342e3836342d382e363535632e3635372d2e33393420312e3230342d2e393520312e3538392d312e363136732e3539342d312e3431382e3630392d322e3138375635352e353338632e3031332d2e3737352d2e3138352d312e3533382d2e3537322d322e32303861342e323520342e32352030203020302d312e3632352d312e3539356c2d31342e3939332d382e3738367a222066696c6c3d2223666666222f3e3c646566733e3c6c696e6561724772616469656e742069643d2242222078313d2230222079313d2230222078323d22323730222079323d2232373022206772616469656e74556e6974733d227573657253706163654f6e557365223e3c73746f702073746f702d636f6c6f723d2223636235656565222f3e3c73746f70206f66667365743d2231222073746f702d636f6c6f723d2223306364376534222073746f702d6f7061636974793d222e3939222f3e3c2f6c696e6561724772616469656e743e3c2f646566733e3c7465787420783d2233322e352220793d223233312220666f6e742d73697a653d223237222066696c6c3d2223666666222066696c7465723d2275726c282341292220666f6e742d66616d696c793d22506c7573204a616b617274612053616e732c44656a6156752053616e732c4e6f746f20436f6c6f7220456d6f6a692c4170706c6520436f6c6f7220456d6f6a692c73616e732d73657269662220666f6e742d7765696768743d22626f6c64223e",
  "linkReferences": {},
  "deployedLinkReferences": {}
}