{
  "_format": "hh-sol-artifact-1",
  "contractName": "Domains",
  "sourceName": "contracts/Domains.sol",
  "abi": [
    {
      "inputs": [
        {
          "internalType": "string",
          "name": "_tld",
          "type": "string"
        }
      ],
      "stateMutability": "payable",
      "type": "constructor"
    },
    {
      "inputs": [],
      "name": "AlreadyRegistered",
      "type": "error"
    },
    {
      "inputs": [
        {
          "internalType": "string",
          "name": "name",
          "type": "string"
        }
      ],
      "name": "InvalidName",
      "type": "error"
    },
    {
      "inputs": [],
      "name": "Unauthorized",
      "type": "error"
    },
    {
      "anonymous": false,
      "inputs": [
        {
          "indexed": true,
          "internalType": "address",
          "name": "owner",
          "type": "address"
        },
        {
          "indexed": true,
          "internalType": "address",
          "name": "approved",
          "type": "address"
        },
        {
          "indexed": true,
          "internalType": "uint256",
          "name": "tokenId",
          "type": "uint256"
        }
      ],
      "name": "Approval",
      "type": "event"
    },
    {
      "anonymous": false,
      "inputs": [
        {
          "indexed": true,
          "internalType": "address",
          "name": "owner",
          "type": "address"
        },
        {
          "indexed": true,
          "internalType": "address",
          "name": "operator",
          "type": "address"
        },
        {
          "indexed": false,
          "internalType": "bool",
          "name": "approved",
          "type": "bool"
        }
      ],
      "name": "ApprovalForAll",
      "type": "event"
    },
    {
      "anonymous": false,
      "inputs": [
        {
          "indexed": true,
          "internalType": "address",
          "name": "from",
          "type": "address"
        },
        {
          "indexed": true,
          "internalType": "address",
          "name": "to",
          "type": "address"
        },
        {
          "indexed": true,
          "internalType": "uint256",
          "name": "tokenId",
          "type": "uint256"
        }
      ],
      "name": "Transfer",
      "type": "event"
    },
    {
      "inputs": [
        {
          "internalType": "address",
          "name": "to",
          "type": "address"
        },
        {
          "internalType": "uint256",
          "name": "tokenId",
          "type": "uint256"
        }
      ],
      "name": "approve",
      "outputs": [],
      "stateMutability": "nonpayable",
      "type": "function"
    },
    {
      "inputs": [
        {
          "internalType": "address",
          "name": "owner",
          "type": "address"
        }
      ],
      "name": "balanceOf",
      "outputs": [
        {
          "internalType": "uint256",
          "name": "",
          "type": "uint256"
        }
      ],
      "stateMutability": "view",
      "type": "function"
    },
    {
      "inputs": [
        {
          "internalType": "string",
          "name": "",
          "type": "string"
        }
      ],
      "name": "domains",
      "outputs": [
        {
          "internalType": "address",
          "name": "",
          "type": "address"
        }
      ],
      "stateMutability": "view",
      "type": "function"
    },
    {
      "inputs": [
        {
          "internalType": "string",
          "name": "name",
          "type": "string"
        }
      ],
      "name": "getAddress",
      "outputs": [
        {
          "internalType": "address",
          "name": "",
          "type": "address"
        }
      ],
      "stateMutability": "view",
      "type": "function"
    },
    {
      "inputs": [],
      "name": "getAllNames",
      "outputs": [
        {
          "internalType": "string[]",
          "name": "",
          "type": "string[]"
        }
      ],
      "stateMutability": "view",
      "type": "function"
    },
    {
      "inputs": [
        {
          "internalType": "uint256",
          "name": "tokenId",
          "type": "uint256"
        }
      ],
      "name": "getApproved",
      "outputs": [
        {
          "internalType": "address",
          "name": "",
          "type": "address"
        }
      ],
      "stateMutability": "view",
      "type": "function"
    },
    {
      "inputs": [
        {
          "internalType": "string",
          "name": "name",
          "type": "string"
        }
      ],
      "name": "getRecord",
      "outputs": [
        {
          "internalType": "string",
          "name": "",
          "type": "string"
        }
      ],
      "stateMutability": "view",
      "type": "function"
    },
    {
      "inputs": [
        {
          "internalType": "address",
          "name": "owner",
          "type": "address"
        },
        {
          "internalType": "address",
          "name": "operator",
          "type": "address"
        }
      ],
      "name": "isApprovedForAll",
      "outputs": [
        {
          "internalType": "bool",
          "name": "",
          "type": "bool"
        }
      ],
      "stateMutability": "view",
      "type": "function"
    },
    {
      "inputs": [],
      "name": "isOwner",
      "outputs": [
        {
          "internalType": "bool",
          "name": "",
          "type": "bool"
        }
      ],
      "stateMutability": "view",
      "type": "function"
    },
    {
      "inputs": [],
      "name": "name",
      "outputs": [
        {
          "internalType": "string",
          "name": "",
          "type": "string"
        }
      ],
      "stateMutability": "view",
      "type": "function"
    },
    {
      "inputs": [
        {
          "internalType": "uint256",
          "name": "",
          "type": "uint256"
        }
      ],
      "name": "names",
      "outputs": [
        {
          "internalType": "string",
          "name": "",
          "type": "string"
        }
      ],
      "stateMutability": "view",
      "type": "function"
    },
    {
      "inputs": [],
      "name": "owner",
      "outputs": [
        {
          "internalType": "address payable",
          "name": "",
          "type": "address"
        }
      ],
      "stateMutability": "view",
      "type": "function"
    },
    {
      "inputs": [
        {
          "internalType": "uint256",
          "name": "tokenId",
          "type": "uint256"
        }
      ],
      "name": "ownerOf",
      "outputs": [
        {
          "internalType": "address",
          "name": "",
          "type": "address"
        }
      ],
      "stateMutability": "view",
      "type": "function"
    },
    {
      "inputs": [
        {
          "internalType": "string",
          "name": "name",
          "type": "string"
        }
      ],
      "name": "price",
      "outputs": [
        {
          "internalType": "uint256",
          "name": "",
          "type": "uint256"
        }
      ],
      "stateMutability": "pure",
      "type": "function"
    },
    {
      "inputs": [
        {
          "internalType": "string",
          "name": "",
          "type": "string"
        }
      ],
      "name": "records",
      "outputs": [
        {
          "internalType": "string",
          "name": "",
          "type": "string"
        }
      ],
      "stateMutability": "view",
      "type": "function"
    },
    {
      "inputs": [
        {
          "internalType": "string",
          "name": "name",
          "type": "string"
        }
      ],
      "name": "register",
      "outputs": [],
      "stateMutability": "payable",
      "type": "function"
    },
    {
      "inputs": [
        {
          "internalType": "address",
          "name": "from",
          "type": "address"
        },
        {
          "internalType": "address",
          "name": "to",
          "type": "address"
        },
        {
          "internalType": "uint256",
          "name": "tokenId",
          "type": "uint256"
        }
      ],
      "name": "safeTransferFrom",
      "outputs": [],
      "stateMutability": "nonpayable",
      "type": "function"
    },
    {
      "inputs": [
        {
          "internalType": "address",
          "name": "from",
          "type": "address"
        },
        {
          "internalType": "address",
          "name": "to",
          "type": "address"
        },
        {
          "internalType": "uint256",
          "name": "tokenId",
          "type": "uint256"
        },
        {
          "internalType": "bytes",
          "name": "_data",
          "type": "bytes"
        }
      ],
      "name": "safeTransferFrom",
      "outputs": [],
      "stateMutability": "nonpayable",
      "type": "function"
    },
    {
      "inputs": [
        {
          "internalType": "address",
          "name": "operator",
          "type": "address"
        },
        {
          "internalType": "bool",
          "name": "approved",
          "type": "bool"
        }
      ],
      "name": "setApprovalForAll",
      "outputs": [],
      "stateMutability": "nonpayable",
      "type": "function"
    },
    {
      "inputs": [
        {
          "internalType": "string",
          "name": "name",
          "type": "string"
        },
        {
          "internalType": "string",
          "name": "record",
          "type": "string"
        }
      ],
      "name": "setRecord",
      "outputs": [],
      "stateMutability": "nonpayable",
      "type": "function"
    },
    {
      "inputs": [
        {
          "internalType": "bytes4",
          "name": "interfaceId",
          "type": "bytes4"
        }
      ],
      "name": "supportsInterface",
      "outputs": [
        {
          "internalType": "bool",
          "name": "",
          "type": "bool"
        }
      ],
      "stateMutability": "view",
      "type": "function"
    },
    {
      "inputs": [],
      "name": "symbol",
      "outputs": [
        {
          "internalType": "string",
          "name": "",
          "type": "string"
        }
      ],
      "stateMutability": "view",
      "type": "function"
    },
    {
      "inputs": [
        {
          "internalType": "string",
          "name": "str",
          "type": "string"
        }
      ],
      "name": "testStr",
      "outputs": [
        {
          "internalType": "bool",
          "name": "",
          "type": "bool"
        }
      ],
      "stateMutability": "pure",
      "type": "function"
    },
    {
      "inputs": [],
      "name": "tld",
      "outputs": [
        {
          "internalType": "string",
          "name": "",
          "type": "string"
        }
      ],
      "stateMutability": "view",
      "type": "function"
    },
    {
      "inputs": [
        {
          "internalType": "uint256",
          "name": "tokenId",
          "type": "uint256"
        }
      ],
      "name": "tokenURI",
      "outputs": [
        {
          "internalType": "string",
          "name": "",
          "type": "string"
        }
      ],
      "stateMutability": "view",
      "type": "function"
    },
    {
      "inputs": [
        {
          "internalType": "address",
          "name": "from",
          "type": "address"
        },
        {
          "internalType": "address",
          "name": "to",
          "type": "address"
        },
        {
          "internalType": "uint256",
          "name": "tokenId",
          "type": "uint256"
        }
      ],
      "name": "transferFrom",
      "outputs": [],
      "stateMutability": "nonpayable",
      "type": "function"
    },
    {
      "inputs": [
        {
          "internalType": "string",
          "name": "name",
          "type": "string"
        }
      ],
      "name": "valid",
      "outputs": [
        {
          "internalType": "bool",
          "name": "",
          "type": "bool"
        }
      ],
      "stateMutability": "pure",
      "type": "function"
    },
    {
      "inputs": [],
      "name": "withdraw",
      "outputs": [],
      "stateMutability": "nonpayable",
      "type": "function"
    }
  ],
  "bytecode": "0x6080604052604051806108a0016040528061086b8152602001620057c661086b9139600a908051906020019062000038929190620002c4565b506040518060400160405280600d81526020017f3c2f746578743e3c2f7376673e00000000000000000000000000000000000000815250600b908051906020019062000086929190620002c4565b5060405162006031380380620060318339818101604052810190620000ac919062000511565b6040518060400160405280601581526020017f536967726964204e616d696e67205365727669636500000000000000000000008152506040518060400160405280600381526020017f534e530000000000000000000000000000000000000000000000000000000000815250816000908051906020019062000130929190620002c4565b50806001908051906020019062000149929190620002c4565b50505033600760006101000a81548173ffffffffffffffffffffffffffffffffffffffff021916908373ffffffffffffffffffffffffffffffffffffffff1602179055508060099080519060200190620001a5929190620002c4565b50620001f16040518060400160405280601f81526020017f68656c6c6f2c20646f6d61696e20636f6e747261637420697320686572652e00815250620001f860201b62001e981760201c565b5062000648565b62000298816040516024016200020f9190620005bf565b6040516020818303038152906040527f41304fac000000000000000000000000000000000000000000000000000000007bffffffffffffffffffffffffffffffffffffffffffffffffffffffff19166020820180517bffffffffffffffffffffffffffffffffffffffffffffffffffffffff83818316178352505050506200029b60201b60201c565b50565b60008151905060006a636f6e736f6c652e6c6f679050602083016000808483855afa5050505050565b828054620002d29062000612565b90600052602060002090601f016020900481019282620002f6576000855562000342565b82601f106200031157805160ff191683800117855562000342565b8280016001018555821562000342579182015b828111156200034157825182559160200191906001019062000324565b5b50905062000351919062000355565b5090565b5b808211156200037057600081600090555060010162000356565b5090565b6000604051905090565b600080fd5b600080fd5b600080fd5b600080fd5b6000601f19601f8301169050919050565b7f4e487b7100000000000000000000000000000000000000000000000000000000600052604160045260246000fd5b620003dd8262000392565b810181811067ffffffffffffffff82111715620003ff57620003fe620003a3565b5b80604052505050565b60006200041462000374565b9050620004228282620003d2565b919050565b600067ffffffffffffffff821115620004455762000444620003a3565b5b620004508262000392565b9050602081019050919050565b60005b838110156200047d57808201518184015260208101905062000460565b838111156200048d576000848401525b50505050565b6000620004aa620004a48462000427565b62000408565b905082815260208101848484011115620004c957620004c86200038d565b5b620004d68482856200045d565b509392505050565b600082601f830112620004f657620004f562000388565b5b81516200050884826020860162000493565b91505092915050565b6000602082840312156200052a57620005296200037e565b5b600082015167ffffffffffffffff8111156200054b576200054a62000383565b5b6200055984828501620004de565b91505092915050565b600081519050919050565b600082825260208201905092915050565b60006200058b8262000562565b6200059781856200056d565b9350620005a98185602086016200045d565b620005b48162000392565b840191505092915050565b60006020820190508181036000830152620005db81846200057e565b905092915050565b7f4e487b7100000000000000000000000000000000000000000000000000000000600052602260045260246000fd5b600060028204905060018216806200062b57607f821691505b60208210811415620006425762000641620005e3565b5b50919050565b61516e80620006586000396000f3fe6080604052600436106101b75760003560e01c806370a08231116100ec578063bf40fac11161008a578063e985e9c511610064578063e985e9c51461067c578063f2c298be146106b9578063fb825e5f146106d5578063fe2c619814610700576101b7565b8063bf40fac1146105d9578063c1880a9814610616578063c87b56dd1461063f576101b7565b806395d89b41116100c657806395d89b411461051f5780639791c0971461054a578063a22cb46514610587578063b88d4fde146105b0576101b7565b806370a082311461048c5780638da5cb5b146104c95780638f32d59b146104f4576101b7565b80632d551432116101595780634622ab03116101335780634622ab0314610398578063541e771d146103d55780635684cff5146104125780636352211e1461044f576101b7565b80632d5514321461032d5780633ccfd60b1461035857806342842e0e1461036f576101b7565b8063095ea7b311610195578063095ea7b31461026157806311dd88451461028a57806323b872dd146102c757806326449235146102f0576101b7565b806301ffc9a7146101bc57806306fdde03146101f9578063081812fc14610224575b600080fd5b3480156101c857600080fd5b506101e360048036038101906101de9190613416565b61073d565b6040516101f0919061345e565b60405180910390f35b34801561020557600080fd5b5061020e61081f565b60405161021b9190613512565b60405180910390f35b34801561023057600080fd5b5061024b6004803603810190610246919061356a565b6108b1565b60405161025891906135d8565b60405180910390f35b34801561026d57600080fd5b506102886004803603810190610283919061361f565b610936565b005b34801561029657600080fd5b506102b160048036038101906102ac91906136c4565b610a4e565b6040516102be9190613512565b60405180910390f35b3480156102d357600080fd5b506102ee60048036038101906102e99190613711565b610b01565b005b3480156102fc57600080fd5b5061031760048036038101906103129190613894565b610b61565b60405161032491906135d8565b60405180910390f35b34801561033957600080fd5b50610342610baa565b60405161034f9190613512565b60405180910390f35b34801561036457600080fd5b5061036d610c38565b005b34801561037b57600080fd5b5061039660048036038101906103919190613711565b610cfe565b005b3480156103a457600080fd5b506103bf60048036038101906103ba919061356a565b610d1e565b6040516103cc9190613512565b60405180910390f35b3480156103e157600080fd5b506103fc60048036038101906103f79190613894565b610dbe565b6040516104099190613512565b60405180910390f35b34801561041e57600080fd5b50610439600480360381019061043491906136c4565b610e74565b604051610446919061345e565b60405180910390f35b34801561045b57600080fd5b506104766004803603810190610471919061356a565b61108b565b60405161048391906135d8565b60405180910390f35b34801561049857600080fd5b506104b360048036038101906104ae91906138dd565b61113d565b6040516104c09190613919565b60405180910390f35b3480156104d557600080fd5b506104de6111f5565b6040516104eb9190613955565b60405180910390f35b34801561050057600080fd5b5061050961121b565b604051610516919061345e565b60405180910390f35b34801561052b57600080fd5b50610534611273565b6040516105419190613512565b60405180910390f35b34801561055657600080fd5b50610571600480360381019061056c91906136c4565b611305565b60405161057e919061345e565b60405180910390f35b34801561059357600080fd5b506105ae60048036038101906105a9919061399c565b6113b9565b005b3480156105bc57600080fd5b506105d760048036038101906105d29190613a7d565b6113cf565b005b3480156105e557600080fd5b5061060060048036038101906105fb91906136c4565b611431565b60405161060d91906135d8565b60405180910390f35b34801561062257600080fd5b5061063d60048036038101906106389190613b00565b61147c565b005b34801561064b57600080fd5b506106666004803603810190610661919061356a565b6115a7565b6040516106739190613512565b60405180910390f35b34801561068857600080fd5b506106a3600480360381019061069e9190613b81565b6116f9565b6040516106b0919061345e565b60405180910390f35b6106d360048036038101906106ce91906136c4565b61178d565b005b3480156106e157600080fd5b506106ea611c31565b6040516106f79190613ccd565b60405180910390f35b34801561070c57600080fd5b50610727600480360381019061072291906136c4565b611df2565b6040516107349190613919565b60405180910390f35b60007f80ac58cd000000000000000000000000000000000000000000000000000000007bffffffffffffffffffffffffffffffffffffffffffffffffffffffff1916827bffffffffffffffffffffffffffffffffffffffffffffffffffffffff1916148061080857507f5b5e139f000000000000000000000000000000000000000000000000000000007bffffffffffffffffffffffffffffffffffffffffffffffffffffffff1916827bffffffffffffffffffffffffffffffffffffffffffffffffffffffff1916145b80610818575061081782611f31565b5b9050919050565b60606000805461082e90613d1e565b80601f016020809104026020016040519081016040528092919081815260200182805461085a90613d1e565b80156108a75780601f1061087c576101008083540402835291602001916108a7565b820191906000526020600020905b81548152906001019060200180831161088a57829003601f168201915b5050505050905090565b60006108bc82611f9b565b6108fb576040517f08c379a00000000000000000000000000000000000000000000000000000000081526004016108f290613dc2565b60405180910390fd5b6004600083815260200190815260200160002060009054906101000a900473ffffffffffffffffffffffffffffffffffffffff169050919050565b60006109418261108b565b90508073ffffffffffffffffffffffffffffffffffffffff168373ffffffffffffffffffffffffffffffffffffffff1614156109b2576040517f08c379a00000000000000000000000000000000000000000000000000000000081526004016109a990613e54565b60405180910390fd5b8073ffffffffffffffffffffffffffffffffffffffff166109d1612007565b73ffffffffffffffffffffffffffffffffffffffff161480610a0057506109ff816109fa612007565b6116f9565b5b610a3f576040517f08c379a0000000000000000000000000000000000000000000000000000000008152600401610a3690613ee6565b60405180910390fd5b610a49838361200f565b505050565b6060600d8383604051610a62929190613f36565b90815260200160405180910390208054610a7b90613d1e565b80601f0160208091040260200160405190810160405280929190818152602001828054610aa790613d1e565b8015610af45780601f10610ac957610100808354040283529160200191610af4565b820191906000526020600020905b815481529060010190602001808311610ad757829003601f168201915b5050505050905092915050565b610b12610b0c612007565b826120c8565b610b51576040517f08c379a0000000000000000000000000000000000000000000000000000000008152600401610b4890613fc1565b60405180910390fd5b610b5c8383836121a6565b505050565b600c818051602081018201805184825260208301602085012081835280955050505050506000915054906101000a900473ffffffffffffffffffffffffffffffffffffffff1681565b60098054610bb790613d1e565b80601f0160208091040260200160405190810160405280929190818152602001828054610be390613d1e565b8015610c305780601f10610c0557610100808354040283529160200191610c30565b820191906000526020600020905b815481529060010190602001808311610c1357829003601f168201915b505050505081565b610c4061121b565b610c4957600080fd5b600047905060003373ffffffffffffffffffffffffffffffffffffffff1682604051610c7490614012565b60006040518083038185875af1925050503d8060008114610cb1576040519150601f19603f3d011682016040523d82523d6000602084013e610cb6565b606091505b5050905080610cfa576040517f08c379a0000000000000000000000000000000000000000000000000000000008152600401610cf190614073565b60405180910390fd5b5050565b610d19838383604051806020016040528060008152506113cf565b505050565b600e6020528060005260406000206000915090508054610d3d90613d1e565b80601f0160208091040260200160405190810160405280929190818152602001828054610d6990613d1e565b8015610db65780601f10610d8b57610100808354040283529160200191610db6565b820191906000526020600020905b815481529060010190602001808311610d9957829003601f168201915b505050505081565b600d818051602081018201805184825260208301602085012081835280955050505050506000915090508054610df390613d1e565b80601f0160208091040260200160405190810160405280929190818152602001828054610e1f90613d1e565b8015610e6c5780601f10610e4157610100808354040283529160200191610e6c565b820191906000526020600020905b815481529060010190602001808311610e4f57829003601f168201915b505050505081565b60008083838080601f016020809104026020016040519081016040528093929190818152602001838380828437600081840152601f19601f820116905080830192505050505050509050600d81511115610ed2576000915050611085565b60005b815181101561107e576000828281518110610ef357610ef2614093565b5b602001015160f81c60f81b9050603060f81b817effffffffffffffffffffffffffffffffffffffffffffffffffffffffffffff191610158015610f5c5750603960f81b817effffffffffffffffffffffffffffffffffffffffffffffffffffffffffffff191611155b158015610fc25750604160f81b817effffffffffffffffffffffffffffffffffffffffffffffffffffffffffffff191610158015610fc05750605a60f81b817effffffffffffffffffffffffffffffffffffffffffffffffffffffffffffff191611155b155b80156110275750606160f81b817effffffffffffffffffffffffffffffffffffffffffffffffffffffffffffff1916101580156110255750607a60f81b817effffffffffffffffffffffffffffffffffffffffffffffffffffffffffffff191611155b155b80156110595750602e60f81b817effffffffffffffffffffffffffffffffffffffffffffffffffffffffffffff191614155b1561106a5760009350505050611085565b508080611076906140f1565b915050610ed5565b5060019150505b92915050565b6000806002600084815260200190815260200160002060009054906101000a900473ffffffffffffffffffffffffffffffffffffffff169050600073ffffffffffffffffffffffffffffffffffffffff168173ffffffffffffffffffffffffffffffffffffffff161415611134576040517f08c379a000000000000000000000000000000000000000000000000000000000815260040161112b906141ac565b60405180910390fd5b80915050919050565b60008073ffffffffffffffffffffffffffffffffffffffff168273ffffffffffffffffffffffffffffffffffffffff1614156111ae576040517f08c379a00000000000000000000000000000000000000000000000000000000081526004016111a59061423e565b60405180910390fd5b600360008373ffffffffffffffffffffffffffffffffffffffff1673ffffffffffffffffffffffffffffffffffffffff168152602001908152602001600020549050919050565b600760009054906101000a900473ffffffffffffffffffffffffffffffffffffffff1681565b6000600760009054906101000a900473ffffffffffffffffffffffffffffffffffffffff1673ffffffffffffffffffffffffffffffffffffffff163373ffffffffffffffffffffffffffffffffffffffff1614905090565b60606001805461128290613d1e565b80601f01602080910402602001604051908101604052809291908181526020018280546112ae90613d1e565b80156112fb5780601f106112d0576101008083540402835291602001916112fb565b820191906000526020600020905b8154815290600101906020018083116112de57829003601f168201915b5050505050905090565b6000600361135684848080601f016020809104026020016040519081016040528093929190818152602001838380828437600081840152601f19601f8201169050808301925050505050505061240d565b101580156113b15750600a6113ae84848080601f016020809104026020016040519081016040528093929190818152602001838380828437600081840152601f19601f8201169050808301925050505050505061240d565b11155b905092915050565b6113cb6113c4612007565b83836125c2565b5050565b6113e06113da612007565b836120c8565b61141f576040517f08c379a000000000000000000000000000000000000000000000000000000000815260040161141690613fc1565b60405180910390fd5b61142b8484848461272f565b50505050565b6000600c8383604051611445929190613f36565b908152602001604051809103902060009054906101000a900473ffffffffffffffffffffffffffffffffffffffff16905092915050565b6001151561148a8383610e74565b1515146114cc576040517f08c379a00000000000000000000000000000000000000000000000000000000081526004016114c3906142aa565b60405180910390fd5b600c84846040516114de929190613f36565b908152602001604051809103902060009054906101000a900473ffffffffffffffffffffffffffffffffffffffff1673ffffffffffffffffffffffffffffffffffffffff163373ffffffffffffffffffffffffffffffffffffffff1614611571576040517f82b4290000000000000000000000000000000000000000000000000000000000815260040160405180910390fd5b8181600d8686604051611585929190613f36565b908152602001604051809103902091906115a0929190613281565b5050505050565b60606115b282611f9b565b6115f1576040517f08c379a00000000000000000000000000000000000000000000000000000000081526004016115e89061433c565b60405180910390fd5b600060066000848152602001908152602001600020805461161190613d1e565b80601f016020809104026020016040519081016040528092919081815260200182805461163d90613d1e565b801561168a5780601f1061165f5761010080835404028352916020019161168a565b820191906000526020600020905b81548152906001019060200180831161166d57829003601f168201915b50505050509050600061169b61278b565b90506000815114156116b15781925050506116f4565b6000825111156116e65780826040516020016116ce92919061438d565b604051602081830303815290604052925050506116f4565b6116ef846127a2565b925050505b919050565b6000600560008473ffffffffffffffffffffffffffffffffffffffff1673ffffffffffffffffffffffffffffffffffffffff16815260200190815260200160002060008373ffffffffffffffffffffffffffffffffffffffff1673ffffffffffffffffffffffffffffffffffffffff16815260200190815260200160002060009054906101000a900460ff16905092915050565b600073ffffffffffffffffffffffffffffffffffffffff16600c83836040516117b7929190613f36565b908152602001604051809103902060009054906101000a900473ffffffffffffffffffffffffffffffffffffffff1673ffffffffffffffffffffffffffffffffffffffff1614611833576040517f3a81d6fc00000000000000000000000000000000000000000000000000000000815260040160405180910390fd5b61183d8282611305565b6118805781816040517f7f19f48d0000000000000000000000000000000000000000000000000000000081526004016118779291906143de565b60405180910390fd5b60003073ffffffffffffffffffffffffffffffffffffffff1663fe2c619884846040518363ffffffff1660e01b81526004016118bd9291906143de565b602060405180830381865afa1580156118da573d6000803e3d6000fd5b505050506040513d601f19601f820116820180604052508101906118fe9190614417565b905080341015611943576040517f08c379a000000000000000000000000000000000000000000000000000000000815260040161193a90614490565b60405180910390fd5b60008383600960405160200161195b93929190614590565b60405160208183030381529060405290506000600a82600b604051602001611985939291906145c1565b604051602081830303815290604052905060006119a26008612849565b905060006119f387878080601f016020809104026020016040519081016040528093929190818152602001838380828437600081840152601f19601f8201169050808301925050505050505061240d565b90506000611a0082612857565b9050611a696040518060600160405280602e81526020016150e5602e913989898080601f016020809104026020016040519081016040528093929190818152602001838380828437600081840152601f19601f82011690508083019250505050505050856129b8565b6000611a9f86611a7887612a57565b84604051602001611a8b9392919061476e565b604051602081830303815290604052612a57565b9050600081604051602001611ab49190614817565b6040516020818303038152906040529050611ae660405180606001604052806039815260200161503360399139611e98565b611b256040518060400160405280600e81526020017f46696e616c20746f6b656e55524900000000000000000000000000000000000081525082612bef565b611b4660405180606001604052806039815260200161506c60399139611e98565b611b503386612c8b565b611b5a8582612ca9565b33600c8b8b604051611b6d929190613f36565b908152602001604051809103902060006101000a81548173ffffffffffffffffffffffffffffffffffffffff021916908373ffffffffffffffffffffffffffffffffffffffff160217905550611bf86040518060400160405280601b81526020017f2573206861732072656769737465726564206120646f6d61696e21000000000081525033612d1d565b8989600e60008881526020019081526020016000209190611c1a929190613281565b50611c256008612db9565b50505050505050505050565b6060611c5460405180606001604052806026815260200161511360269139611e98565b6000611c606008612849565b67ffffffffffffffff811115611c7957611c78613769565b5b604051908082528060200260200182016040528015611cac57816020015b6060815260200190600190039081611c975790505b50905060005b611cbc6008612849565b811015611dea57600e60008281526020019081526020016000208054611ce190613d1e565b80601f0160208091040260200160405190810160405280929190818152602001828054611d0d90613d1e565b8015611d5a5780601f10611d2f57610100808354040283529160200191611d5a565b820191906000526020600020905b815481529060010190602001808311611d3d57829003601f168201915b5050505050828281518110611d7257611d71614093565b5b6020026020010181905250611dd76040518060400160405280601681526020017f4e616d65206f6620746f6b656e2025642069732025730000000000000000000081525082848481518110611dca57611dc9614093565b5b6020026020010151612dcf565b8080611de2906140f1565b915050611cb2565b508091505090565b600080611e4284848080601f016020809104026020016040519081016040528093929190818152602001838380828437600081840152601f19601f8201169050808301925050505050505061240d565b905060008111611e5157600080fd5b6003811415611e6b576706f05b59d3b20000915050611e92565b6004811415611e8557670429d069189e0000915050611e92565b67016345785d8a00009150505b92915050565b611f2e81604051602401611eac9190613512565b6040516020818303038152906040527f41304fac000000000000000000000000000000000000000000000000000000007bffffffffffffffffffffffffffffffffffffffffffffffffffffffff19166020820180517bffffffffffffffffffffffffffffffffffffffffffffffffffffffff8381831617835250505050612e6e565b50565b60007f01ffc9a7000000000000000000000000000000000000000000000000000000007bffffffffffffffffffffffffffffffffffffffffffffffffffffffff1916827bffffffffffffffffffffffffffffffffffffffffffffffffffffffff1916149050919050565b60008073ffffffffffffffffffffffffffffffffffffffff166002600084815260200190815260200160002060009054906101000a900473ffffffffffffffffffffffffffffffffffffffff1673ffffffffffffffffffffffffffffffffffffffff1614159050919050565b600033905090565b816004600083815260200190815260200160002060006101000a81548173ffffffffffffffffffffffffffffffffffffffff021916908373ffffffffffffffffffffffffffffffffffffffff160217905550808273ffffffffffffffffffffffffffffffffffffffff166120828361108b565b73ffffffffffffffffffffffffffffffffffffffff167f8c5be1e5ebec7d5bd14f71427d1e84f3dd0314c0f7b2291e5b200ac8c7c3b92560405160405180910390a45050565b60006120d382611f9b565b612112576040517f08c379a0000000000000000000000000000000000000000000000000000000008152600401612109906148ab565b60405180910390fd5b600061211d8361108b565b90508073ffffffffffffffffffffffffffffffffffffffff168473ffffffffffffffffffffffffffffffffffffffff16148061218c57508373ffffffffffffffffffffffffffffffffffffffff16612174846108b1565b73ffffffffffffffffffffffffffffffffffffffff16145b8061219d575061219c81856116f9565b5b91505092915050565b8273ffffffffffffffffffffffffffffffffffffffff166121c68261108b565b73ffffffffffffffffffffffffffffffffffffffff161461221c576040517f08c379a00000000000000000000000000000000000000000000000000000000081526004016122139061493d565b60405180910390fd5b600073ffffffffffffffffffffffffffffffffffffffff168273ffffffffffffffffffffffffffffffffffffffff16141561228c576040517f08c379a0000000000000000000000000000000000000000000000000000000008152600401612283906149cf565b60405180910390fd5b612297838383612e97565b6122a260008261200f565b6001600360008573ffffffffffffffffffffffffffffffffffffffff1673ffffffffffffffffffffffffffffffffffffffff16815260200190815260200160002060008282546122f291906149ef565b925050819055506001600360008473ffffffffffffffffffffffffffffffffffffffff1673ffffffffffffffffffffffffffffffffffffffff16815260200190815260200160002060008282546123499190614a23565b92505081905550816002600083815260200190815260200160002060006101000a81548173ffffffffffffffffffffffffffffffffffffffff021916908373ffffffffffffffffffffffffffffffffffffffff160217905550808273ffffffffffffffffffffffffffffffffffffffff168473ffffffffffffffffffffffffffffffffffffffff167fddf252ad1be2c89b69c2b068fc378daa952ba7f163c4a11628f55a4df523b3ef60405160405180910390a4612408838383612e9c565b505050565b60008060008084519050600092505b808210156125b757600085838151811061243957612438614093565b5b602001015160f81c60f81b9050608060f81b817effffffffffffffffffffffffffffffffffffffffffffffffffffffffffffff19161015612488576001836124819190614a23565b92506125a3565b60e060f81b817effffffffffffffffffffffffffffffffffffffffffffffffffffffffffffff191610156124ca576002836124c39190614a23565b92506125a2565b60f060f81b817effffffffffffffffffffffffffffffffffffffffffffffffffffffffffffff1916101561250c576003836125059190614a23565b92506125a1565b60f8801b817effffffffffffffffffffffffffffffffffffffffffffffffffffffffffffff1916101561254d576004836125469190614a23565b92506125a0565b60fc60f81b817effffffffffffffffffffffffffffffffffffffffffffffffffffffffffffff1916101561258f576005836125889190614a23565b925061259f565b60068361259c9190614a23565b92505b5b5b5b5b5082806125af906140f1565b93505061241c565b829350505050919050565b8173ffffffffffffffffffffffffffffffffffffffff168373ffffffffffffffffffffffffffffffffffffffff161415612631576040517f08c379a000000000000000000000000000000000000000000000000000000000815260040161262890614ac5565b60405180910390fd5b80600560008573ffffffffffffffffffffffffffffffffffffffff1673ffffffffffffffffffffffffffffffffffffffff16815260200190815260200160002060008473ffffffffffffffffffffffffffffffffffffffff1673ffffffffffffffffffffffffffffffffffffffff16815260200190815260200160002060006101000a81548160ff0219169083151502179055508173ffffffffffffffffffffffffffffffffffffffff168373ffffffffffffffffffffffffffffffffffffffff167f17307eab39ab6107e8899845ad3d59bd9653f200f220920489ca2b5937696c3183604051612722919061345e565b60405180910390a3505050565b61273a8484846121a6565b61274684848484612ea1565b612785576040517f08c379a000000000000000000000000000000000000000000000000000000000815260040161277c90614b57565b60405180910390fd5b50505050565b606060405180602001604052806000815250905090565b60606127ad82611f9b565b6127ec576040517f08c379a00000000000000000000000000000000000000000000000000000000081526004016127e390614be9565b60405180910390fd5b60006127f661278b565b905060008151116128165760405180602001604052806000815250612841565b8061282084612857565b60405160200161283192919061438d565b6040516020818303038152906040525b915050919050565b600081600001549050919050565b6060600082141561289f576040518060400160405280600181526020017f300000000000000000000000000000000000000000000000000000000000000081525090506129b3565b600082905060005b600082146128d15780806128ba906140f1565b915050600a826128ca9190614c38565b91506128a7565b60008167ffffffffffffffff8111156128ed576128ec613769565b5b6040519080825280601f01601f19166020018201604052801561291f5781602001600182028036833780820191505090505b5090505b600085146129ac5760018261293891906149ef565b9150600a856129479190614c69565b60306129539190614a23565b60f81b81838151811061296957612968614093565b5b60200101907effffffffffffffffffffffffffffffffffffffffffffffffffffffffffffff1916908160001a905350600a856129a59190614c38565b9450612923565b8093505050505b919050565b612a528383836040516024016129d093929190614c9a565b6040516020818303038152906040527ff362ca59000000000000000000000000000000000000000000000000000000007bffffffffffffffffffffffffffffffffffffffffffffffffffffffff19166020820180517bffffffffffffffffffffffffffffffffffffffffffffffffffffffff8381831617835250505050612e6e565b505050565b60606000825190506000811415612a805760405180602001604052806000815250915050612bea565b60006003600283612a919190614a23565b612a9b9190614c38565b6004612aa79190614cdf565b90506000602082612ab89190614a23565b67ffffffffffffffff811115612ad157612ad0613769565b5b6040519080825280601f01601f191660200182016040528015612b035781602001600182028036833780820191505090505b50905060006040518060600160405280604081526020016150a5604091399050600181016020830160005b86811015612ba75760038101905062ffffff818a015116603f8160121c168401518060081b905060ff603f83600c1c1686015116810190508060081b905060ff603f8360061c1686015116810190508060081b905060ff603f831686015116810190508060e01b90508084526004840193505050612b2e565b506003860660018114612bc15760028114612bd157612bdc565b613d3d60f01b6002830352612bdc565b603d60f81b60018303525b508484525050819450505050505b919050565b612c878282604051602401612c05929190614d39565b6040516020818303038152906040527f4b5c4277000000000000000000000000000000000000000000000000000000007bffffffffffffffffffffffffffffffffffffffffffffffffffffffff19166020820180517bffffffffffffffffffffffffffffffffffffffffffffffffffffffff8381831617835250505050612e6e565b5050565b612ca5828260405180602001604052806000815250613029565b5050565b612cb282611f9b565b612cf1576040517f08c379a0000000000000000000000000000000000000000000000000000000008152600401612ce890614de2565b60405180910390fd5b80600660008481526020019081526020016000209080519060200190612d18929190613307565b505050565b612db58282604051602401612d33929190614e02565b6040516020818303038152906040527f319af333000000000000000000000000000000000000000000000000000000007bffffffffffffffffffffffffffffffffffffffffffffffffffffffff19166020820180517bffffffffffffffffffffffffffffffffffffffffffffffffffffffff8381831617835250505050612e6e565b5050565b6001816000016000828254019250508190555050565b612e69838383604051602401612de793929190614e32565b6040516020818303038152906040527fa3f5c739000000000000000000000000000000000000000000000000000000007bffffffffffffffffffffffffffffffffffffffffffffffffffffffff19166020820180517bffffffffffffffffffffffffffffffffffffffffffffffffffffffff8381831617835250505050612e6e565b505050565b60008151905060006a636f6e736f6c652e6c6f679050602083016000808483855afa5050505050565b505050565b505050565b6000612ec28473ffffffffffffffffffffffffffffffffffffffff16613084565b1561301c578373ffffffffffffffffffffffffffffffffffffffff1663150b7a02612eeb612007565b8786866040518563ffffffff1660e01b8152600401612f0d9493929190614ecc565b6020604051808303816000875af1925050508015612f4957506040513d601f19601f82011682018060405250810190612f469190614f2d565b60015b612fcc573d8060008114612f79576040519150601f19603f3d011682016040523d82523d6000602084013e612f7e565b606091505b50600081511415612fc4576040517f08c379a0000000000000000000000000000000000000000000000000000000008152600401612fbb90614b57565b60405180910390fd5b805181602001fd5b63150b7a0260e01b7bffffffffffffffffffffffffffffffffffffffffffffffffffffffff1916817bffffffffffffffffffffffffffffffffffffffffffffffffffffffff191614915050613021565b600190505b949350505050565b61303383836130a7565b6130406000848484612ea1565b61307f576040517f08c379a000000000000000000000000000000000000000000000000000000000815260040161307690614b57565b60405180910390fd5b505050565b6000808273ffffffffffffffffffffffffffffffffffffffff163b119050919050565b600073ffffffffffffffffffffffffffffffffffffffff168273ffffffffffffffffffffffffffffffffffffffff161415613117576040517f08c379a000000000000000000000000000000000000000000000000000000000815260040161310e90614fa6565b60405180910390fd5b61312081611f9b565b15613160576040517f08c379a000000000000000000000000000000000000000000000000000000000815260040161315790615012565b60405180910390fd5b61316c60008383612e97565b6001600360008473ffffffffffffffffffffffffffffffffffffffff1673ffffffffffffffffffffffffffffffffffffffff16815260200190815260200160002060008282546131bc9190614a23565b92505081905550816002600083815260200190815260200160002060006101000a81548173ffffffffffffffffffffffffffffffffffffffff021916908373ffffffffffffffffffffffffffffffffffffffff160217905550808273ffffffffffffffffffffffffffffffffffffffff16600073ffffffffffffffffffffffffffffffffffffffff167fddf252ad1be2c89b69c2b068fc378daa952ba7f163c4a11628f55a4df523b3ef60405160405180910390a461327d60008383612e9c565b5050565b82805461328d90613d1e565b90600052602060002090601f0160209004810192826132af57600085556132f6565b82601f106132c857803560ff19168380011785556132f6565b828001600101855582156132f6579182015b828111156132f55782358255916020019190600101906132da565b5b509050613303919061338d565b5090565b82805461331390613d1e565b90600052602060002090601f016020900481019282613335576000855561337c565b82601f1061334e57805160ff191683800117855561337c565b8280016001018555821561337c579182015b8281111561337b578251825591602001919060010190613360565b5b509050613389919061338d565b5090565b5b808211156133a657600081600090555060010161338e565b5090565b6000604051905090565b600080fd5b600080fd5b60007fffffffff0000000000000000000000000000000000000000000000000000000082169050919050565b6133f3816133be565b81146133fe57600080fd5b50565b600081359050613410816133ea565b92915050565b60006020828403121561342c5761342b6133b4565b5b600061343a84828501613401565b91505092915050565b60008115159050919050565b61345881613443565b82525050565b6000602082019050613473600083018461344f565b92915050565b600081519050919050565b600082825260208201905092915050565b60005b838110156134b3578082015181840152602081019050613498565b838111156134c2576000848401525b50505050565b6000601f19601f8301169050919050565b60006134e482613479565b6134ee8185613484565b93506134fe818560208601613495565b613507816134c8565b840191505092915050565b6000602082019050818103600083015261352c81846134d9565b905092915050565b6000819050919050565b61354781613534565b811461355257600080fd5b50565b6000813590506135648161353e565b92915050565b6000602082840312156135805761357f6133b4565b5b600061358e84828501613555565b91505092915050565b600073ffffffffffffffffffffffffffffffffffffffff82169050919050565b60006135c282613597565b9050919050565b6135d2816135b7565b82525050565b60006020820190506135ed60008301846135c9565b92915050565b6135fc816135b7565b811461360757600080fd5b50565b600081359050613619816135f3565b92915050565b60008060408385031215613636576136356133b4565b5b60006136448582860161360a565b925050602061365585828601613555565b9150509250929050565b600080fd5b600080fd5b600080fd5b60008083601f8401126136845761368361365f565b5b8235905067ffffffffffffffff8111156136a1576136a0613664565b5b6020830191508360018202830111156136bd576136bc613669565b5b9250929050565b600080602083850312156136db576136da6133b4565b5b600083013567ffffffffffffffff8111156136f9576136f86133b9565b5b6137058582860161366e565b92509250509250929050565b60008060006060848603121561372a576137296133b4565b5b60006137388682870161360a565b93505060206137498682870161360a565b925050604061375a86828701613555565b9150509250925092565b600080fd5b7f4e487b7100000000000000000000000000000000000000000000000000000000600052604160045260246000fd5b6137a1826134c8565b810181811067ffffffffffffffff821117156137c0576137bf613769565b5b80604052505050565b60006137d36133aa565b90506137df8282613798565b919050565b600067ffffffffffffffff8211156137ff576137fe613769565b5b613808826134c8565b9050602081019050919050565b82818337600083830152505050565b6000613837613832846137e4565b6137c9565b90508281526020810184848401111561385357613852613764565b5b61385e848285613815565b509392505050565b600082601f83011261387b5761387a61365f565b5b813561388b848260208601613824565b91505092915050565b6000602082840312156138aa576138a96133b4565b5b600082013567ffffffffffffffff8111156138c8576138c76133b9565b5b6138d484828501613866565b91505092915050565b6000602082840312156138f3576138f26133b4565b5b60006139018482850161360a565b91505092915050565b61391381613534565b82525050565b600060208201905061392e600083018461390a565b92915050565b600061393f82613597565b9050919050565b61394f81613934565b82525050565b600060208201905061396a6000830184613946565b92915050565b61397981613443565b811461398457600080fd5b50565b60008135905061399681613970565b92915050565b600080604083850312156139b3576139b26133b4565b5b60006139c18582860161360a565b92505060206139d285828601613987565b9150509250929050565b600067ffffffffffffffff8211156139f7576139f6613769565b5b613a00826134c8565b9050602081019050919050565b6000613a20613a1b846139dc565b6137c9565b905082815260208101848484011115613a3c57613a3b613764565b5b613a47848285613815565b509392505050565b600082601f830112613a6457613a6361365f565b5b8135613a74848260208601613a0d565b91505092915050565b60008060008060808587031215613a9757613a966133b4565b5b6000613aa58782880161360a565b9450506020613ab68782880161360a565b9350506040613ac787828801613555565b925050606085013567ffffffffffffffff811115613ae857613ae76133b9565b5b613af487828801613a4f565b91505092959194509250565b60008060008060408587031215613b1a57613b196133b4565b5b600085013567ffffffffffffffff811115613b3857613b376133b9565b5b613b448782880161366e565b9450945050602085013567ffffffffffffffff811115613b6757613b666133b9565b5b613b738782880161366e565b925092505092959194509250565b60008060408385031215613b9857613b976133b4565b5b6000613ba68582860161360a565b9250506020613bb78582860161360a565b9150509250929050565b600081519050919050565b600082825260208201905092915050565b6000819050602082019050919050565b600082825260208201905092915050565b6000613c0982613479565b613c138185613bed565b9350613c23818560208601613495565b613c2c816134c8565b840191505092915050565b6000613c438383613bfe565b905092915050565b6000602082019050919050565b6000613c6382613bc1565b613c6d8185613bcc565b935083602082028501613c7f85613bdd565b8060005b85811015613cbb5784840389528151613c9c8582613c37565b9450613ca783613c4b565b925060208a01995050600181019050613c83565b50829750879550505050505092915050565b60006020820190508181036000830152613ce78184613c58565b905092915050565b7f4e487b7100000000000000000000000000000000000000000000000000000000600052602260045260246000fd5b60006002820490506001821680613d3657607f821691505b60208210811415613d4a57613d49613cef565b5b50919050565b7f4552433732313a20617070726f76656420717565727920666f72206e6f6e657860008201527f697374656e7420746f6b656e0000000000000000000000000000000000000000602082015250565b6000613dac602c83613484565b9150613db782613d50565b604082019050919050565b60006020820190508181036000830152613ddb81613d9f565b9050919050565b7f4552433732313a20617070726f76616c20746f2063757272656e74206f776e6560008201527f7200000000000000000000000000000000000000000000000000000000000000602082015250565b6000613e3e602183613484565b9150613e4982613de2565b604082019050919050565b60006020820190508181036000830152613e6d81613e31565b9050919050565b7f4552433732313a20617070726f76652063616c6c6572206973206e6f74206f7760008201527f6e6572206e6f7220617070726f76656420666f7220616c6c0000000000000000602082015250565b6000613ed0603883613484565b9150613edb82613e74565b604082019050919050565b60006020820190508181036000830152613eff81613ec3565b9050919050565b600081905092915050565b6000613f1d8385613f06565b9350613f2a838584613815565b82840190509392505050565b6000613f43828486613f11565b91508190509392505050565b7f4552433732313a207472616e736665722063616c6c6572206973206e6f74206f60008201527f776e6572206e6f7220617070726f766564000000000000000000000000000000602082015250565b6000613fab603183613484565b9150613fb682613f4f565b604082019050919050565b60006020820190508181036000830152613fda81613f9e565b9050919050565b600081905092915050565b50565b6000613ffc600083613fe1565b915061400782613fec565b600082019050919050565b600061401d82613fef565b9150819050919050565b7f4661696c656420746f207769746864726177204d617469630000000000000000600082015250565b600061405d601883613484565b915061406882614027565b602082019050919050565b6000602082019050818103600083015261408c81614050565b9050919050565b7f4e487b7100000000000000000000000000000000000000000000000000000000600052603260045260246000fd5b7f4e487b7100000000000000000000000000000000000000000000000000000000600052601160045260246000fd5b60006140fc82613534565b91507fffffffffffffffffffffffffffffffffffffffffffffffffffffffffffffffff82141561412f5761412e6140c2565b5b600182019050919050565b7f4552433732313a206f776e657220717565727920666f72206e6f6e657869737460008201527f656e7420746f6b656e0000000000000000000000000000000000000000000000602082015250565b6000614196602983613484565b91506141a18261413a565b604082019050919050565b600060208201905081810360008301526141c581614189565b9050919050565b7f4552433732313a2062616c616e636520717565727920666f7220746865207a6560008201527f726f206164647265737300000000000000000000000000000000000000000000602082015250565b6000614228602a83613484565b9150614233826141cc565b604082019050919050565b600060208201905081810360008301526142578161421b565b9050919050565b7f73686f756c6420626520616c7068616e756d6572696300000000000000000000600082015250565b6000614294601683613484565b915061429f8261425e565b602082019050919050565b600060208201905081810360008301526142c381614287565b9050919050565b7f45524337323155524953746f726167653a2055524920717565727920666f722060008201527f6e6f6e6578697374656e7420746f6b656e000000000000000000000000000000602082015250565b6000614326603183613484565b9150614331826142ca565b604082019050919050565b6000602082019050818103600083015261435581614319565b9050919050565b600061436782613479565b6143718185613f06565b9350614381818560208601613495565b80840191505092915050565b6000614399828561435c565b91506143a5828461435c565b91508190509392505050565b60006143bd8385613484565b93506143ca838584613815565b6143d3836134c8565b840190509392505050565b600060208201905081810360008301526143f98184866143b1565b90509392505050565b6000815190506144118161353e565b92915050565b60006020828403121561442d5761442c6133b4565b5b600061443b84828501614402565b91505092915050565b7f4e6f7420656e6f756768204d6174696320706169640000000000000000000000600082015250565b600061447a601583613484565b915061448582614444565b602082019050919050565b600060208201905081810360008301526144a98161446d565b9050919050565b7f2e00000000000000000000000000000000000000000000000000000000000000600082015250565b60006144e6600183613f06565b91506144f1826144b0565b600182019050919050565b60008190508160005260206000209050919050565b6000815461451e81613d1e565b6145288186613f06565b94506001821660008114614543576001811461455457614587565b60ff19831686528186019350614587565b61455d856144fc565b60005b8381101561457f57815481890152600182019150602081019050614560565b838801955050505b50505092915050565b600061459d828587613f11565b91506145a8826144d9565b91506145b48284614511565b9150819050949350505050565b60006145cd8286614511565b91506145d9828561435c565b91506145e58284614511565b9150819050949350505050565b7f7b226e616d65223a202200000000000000000000000000000000000000000000600082015250565b6000614628600a83613f06565b9150614633826145f2565b600a82019050919050565b7f222c20226465736372697074696f6e223a20224120646f6d61696e206f6e207460008201527f6865204e696e6a61206e616d652073657276696365222c2022696d616765223a60208201527f2022646174613a696d6167652f7376672b786d6c3b6261736536342c00000000604082015250565b60006146c0605c83613f06565b91506146cb8261463e565b605c82019050919050565b7f222c226c656e677468223a220000000000000000000000000000000000000000600082015250565b600061470c600c83613f06565b9150614717826146d6565b600c82019050919050565b7f227d000000000000000000000000000000000000000000000000000000000000600082015250565b6000614758600283613f06565b915061476382614722565b600282019050919050565b60006147798261461b565b9150614785828661435c565b9150614790826146b3565b915061479c828561435c565b91506147a7826146ff565b91506147b3828461435c565b91506147be8261474b565b9150819050949350505050565b7f646174613a6170706c69636174696f6e2f6a736f6e3b6261736536342c000000600082015250565b6000614801601d83613f06565b915061480c826147cb565b601d82019050919050565b6000614822826147f4565b915061482e828461435c565b915081905092915050565b7f4552433732313a206f70657261746f7220717565727920666f72206e6f6e657860008201527f697374656e7420746f6b656e0000000000000000000000000000000000000000602082015250565b6000614895602c83613484565b91506148a082614839565b604082019050919050565b600060208201905081810360008301526148c481614888565b9050919050565b7f4552433732313a207472616e736665722066726f6d20696e636f72726563742060008201527f6f776e6572000000000000000000000000000000000000000000000000000000602082015250565b6000614927602583613484565b9150614932826148cb565b604082019050919050565b600060208201905081810360008301526149568161491a565b9050919050565b7f4552433732313a207472616e7366657220746f20746865207a65726f2061646460008201527f7265737300000000000000000000000000000000000000000000000000000000602082015250565b60006149b9602483613484565b91506149c48261495d565b604082019050919050565b600060208201905081810360008301526149e8816149ac565b9050919050565b60006149fa82613534565b9150614a0583613534565b925082821015614a1857614a176140c2565b5b828203905092915050565b6000614a2e82613534565b9150614a3983613534565b9250827fffffffffffffffffffffffffffffffffffffffffffffffffffffffffffffffff03821115614a6e57614a6d6140c2565b5b828201905092915050565b7f4552433732313a20617070726f766520746f2063616c6c657200000000000000600082015250565b6000614aaf601983613484565b9150614aba82614a79565b602082019050919050565b60006020820190508181036000830152614ade81614aa2565b9050919050565b7f4552433732313a207472616e7366657220746f206e6f6e20455243373231526560008201527f63656976657220696d706c656d656e7465720000000000000000000000000000602082015250565b6000614b41603283613484565b9150614b4c82614ae5565b604082019050919050565b60006020820190508181036000830152614b7081614b34565b9050919050565b7f4552433732314d657461646174613a2055524920717565727920666f72206e6f60008201527f6e6578697374656e7420746f6b656e0000000000000000000000000000000000602082015250565b6000614bd3602f83613484565b9150614bde82614b77565b604082019050919050565b60006020820190508181036000830152614c0281614bc6565b9050919050565b7f4e487b7100000000000000000000000000000000000000000000000000000000600052601260045260246000fd5b6000614c4382613534565b9150614c4e83613534565b925082614c5e57614c5d614c09565b5b828204905092915050565b6000614c7482613534565b9150614c7f83613534565b925082614c8f57614c8e614c09565b5b828206905092915050565b60006060820190508181036000830152614cb481866134d9565b90508181036020830152614cc881856134d9565b9050614cd7604083018461390a565b949350505050565b6000614cea82613534565b9150614cf583613534565b9250817fffffffffffffffffffffffffffffffffffffffffffffffffffffffffffffffff0483118215151615614d2e57614d2d6140c2565b5b828202905092915050565b60006040820190508181036000830152614d5381856134d9565b90508181036020830152614d6781846134d9565b90509392505050565b7f45524337323155524953746f726167653a2055524920736574206f66206e6f6e60008201527f6578697374656e7420746f6b656e000000000000000000000000000000000000602082015250565b6000614dcc602e83613484565b9150614dd782614d70565b604082019050919050565b60006020820190508181036000830152614dfb81614dbf565b9050919050565b60006040820190508181036000830152614e1c81856134d9565b9050614e2b60208301846135c9565b9392505050565b60006060820190508181036000830152614e4c81866134d9565b9050614e5b602083018561390a565b8181036040830152614e6d81846134d9565b9050949350505050565b600081519050919050565b600082825260208201905092915050565b6000614e9e82614e77565b614ea88185614e82565b9350614eb8818560208601613495565b614ec1816134c8565b840191505092915050565b6000608082019050614ee160008301876135c9565b614eee60208301866135c9565b614efb604083018561390a565b8181036060830152614f0d8184614e93565b905095945050505050565b600081519050614f27816133ea565b92915050565b600060208284031215614f4357614f426133b4565b5b6000614f5184828501614f18565b91505092915050565b7f4552433732313a206d696e7420746f20746865207a65726f2061646472657373600082015250565b6000614f90602083613484565b9150614f9b82614f5a565b602082019050919050565b60006020820190508181036000830152614fbf81614f83565b9050919050565b7f4552433732313a20746f6b656e20616c7265616479206d696e74656400000000600082015250565b6000614ffc601c83613484565b915061500782614fc6565b602082019050919050565b6000602082019050818103600083015261502b81614fef565b905091905056fe0a2d2d2d2d2d2d2d2d2d2d2d2d2d2d2d2d2d2d2d2d2d2d2d2d2d2d2d2d2d2d2d2d2d2d2d2d2d2d2d2d2d2d2d2d2d2d2d2d2d2d2d2d2d2d2d2d2d2d2d2d2d2d2d2d2d2d2d2d2d2d2d2d2d2d2d2d2d2d2d2d2d2d2d2d2d2d2d2d2d2d2d2d2d2d2d2d2d2d2d2d2d2d2d2d2d2d2d2d2d2d2d2d0a4142434445464748494a4b4c4d4e4f505152535455565758595a6162636465666768696a6b6c6d6e6f707172737475767778797a303132333435363738392b2f5265676973746572696e67202573206f6e2074686520636f6e7472616374207769746820746f6b656e494420256447657474696e6720616c6c206e616d65732066726f6d2074686520636f6e74726163742e2e2ea2646970667358221220873507631c79a6f2f5198ec99b6a9076e0a3b83ad9cc46d39a615ba2b8cda2de64736f6c634300080a00333c73766720786d6c6e733d22687474703a2f2f7777772e77332e6f72672f323030302f737667222077696474683d2232373022206865696768743d22323730222066696c6c3d226e6f6e65223e3c706174682066696c6c3d2275726c282342292220643d224d302030683237307632373048307a222f3e3c646566733e3c66696c7465722069643d22412220636f6c6f722d696e746572706f6c6174696f6e2d66696c746572733d2273524742222066696c746572556e6974733d227573657253706163654f6e55736522206865696768743d22323730222077696474683d22323730223e3c666544726f70536861646f772064783d2230222064793d22312220737464446576696174696f6e3d22322220666c6f6f642d6f7061636974793d222e323235222077696474683d223230302522206865696768743d2232303025222f3e3c2f66696c7465723e3c2f646566733e3c7061746820643d224d37322e3836332034322e393439632d2e3636382d2e3338372d312e3432362d2e35392d322e3139372d2e3539732d312e3532392e3230342d322e3139372e35396c2d31302e30383120362e3033322d362e383520332e3933342d31302e30383120362e303332632d2e3636382e3338372d312e3432362e35392d322e3139372e3539732d312e3532392d2e3230342d322e3139372d2e35396c2d382e3031332d342e37323161342e353220342e35322030203020312d312e3538392d312e363136632d2e3338342d2e3636352d2e3539342d312e3431382d2e3630382d322e313837762d392e3331632d2e3031332d2e3737352e3138352d312e3533382e3537322d322e32303861342e323520342e323520302030203120312e3632352d312e3539356c372e3838342d342e3539632e3636382d2e33383720312e3432362d2e353920322e3139372d2e353973312e3532392e32303420322e3139372e35396c372e38383420342e353961342e353220342e353220302030203120312e35383920312e363136632e3338342e3636352e35393420312e3431382e36303820322e31383776362e3033326c362e38352d342e303635762d362e303332632e3031332d2e3737352d2e3138352d312e3533382d2e3537322d322e32303861342e323520342e32352030203020302d312e3632352d312e3539354c34312e3435362032342e3539632d2e3636382d2e3338372d312e3432362d2e35392d322e3139372d2e3539732d312e3532392e3230342d322e3139372e35396c2d31342e38363420382e36353561342e323520342e32352030203020302d312e36323520312e353935632d2e3338372e36372d2e35383520312e3433342d2e35373220322e3230387631372e343431632d2e3031332e3737352e31383520312e3533382e35373220322e32303861342e323520342e323520302030203020312e36323520312e3539356c31342e38363420382e363535632e3636382e33383720312e3432362e353920322e3139372e353973312e3532392d2e32303420322e3139372d2e35396c31302e3038312d352e39303120362e38352d342e3036352031302e3038312d352e393031632e3636382d2e33383720312e3432362d2e353920322e3139372d2e353973312e3532392e32303420322e3139372e35396c372e38383420342e353961342e353220342e353220302030203120312e35383920312e363136632e3338342e3636352e35393420312e3431382e36303820322e31383776392e333131632e3031332e3737352d2e31383520312e3533382d2e35373220322e32303861342e323520342e32352030203020312d312e36323520312e3539356c2d372e38383420342e373231632d2e3636382e3338372d312e3432362e35392d322e3139372e3539732d312e3532392d2e3230342d322e3139372d2e35396c2d372e3838342d342e353961342e353220342e35322030203020312d312e3538392d312e363136632d2e3338352d2e3636352d2e3539342d312e3431382d2e3630382d322e313837762d362e3033326c2d362e383520342e30363576362e303332632d2e3031332e3737352e31383520312e3533382e35373220322e32303861342e323520342e323520302030203020312e36323520312e3539356c31342e38363420382e363535632e3636382e33383720312e3432362e353920322e3139372e353973312e3532392d2e32303420322e3139372d2e35396c31342e3836342d382e363535632e3635372d2e33393420312e3230342d2e393520312e3538392d312e363136732e3539342d312e3431382e3630392d322e3138375635352e353338632e3031332d2e3737352d2e3138352d312e3533382d2e3537322d322e32303861342e323520342e32352030203020302d312e3632352d312e3539356c2d31342e3939332d382e3738367a222066696c6c3d2223666666222f3e3c646566733e3c6c696e6561724772616469656e742069643d2242222078313d2230222079313d2230222078323d22323730222079323d2232373022206772616469656e74556e6974733d227573657253706163654f6e557365223e3c73746f702073746f702d636f6c6f723d2223636235656565222f3e3c73746f70206f66667365743d2231222073746f702d636f6c6f723d2223306364376534222073746f702d6f7061636974793d222e3939222f3e3c2f6c696e6561724772616469656e743e3c2f646566733e3c7465787420783d2233322e352220793d223233312220666f6e742d73697a653d223237222066696c6c3d2223666666222066696c7465723d2275726c282341292220666f6e742d66616d696c793d22506c7573204a616b617274612053616e732c44656a6156752053616e732c4e6f746f20436f6c6f7220456d6f6a692c4170706c6520436f6c6f7220456d6f6a692c73616e732d73657269662220666f6e742d7765696768743d22626f6c64223e",
  "linkReferences": {},
  "deployedLinkReferences": {}
}